S0140000456E636F6465725F746573742E7372656331
S113000071C000008EC000008CC000008AC00000D7
S113001088C0000086C0000070C1000082C00000DB
S113002080C000007EC000007CC000007AC00000D8
S113003078C0000076C0000074C0000072C00000E8
S113004070C000006EC000006CC000006AC00000F8
S113005068C0000066C0000064C0000062C0000008
S113006060C000005EC000005CC000005AC0000018
S113007058C0000056C0000054C0000052C0000028
S113008050C000004EC000004CC000004AC0000038
S113009048C0000046C0000044C0000042C0000048
S11300A040C000003EC000003CC000003AC0000058
S11300B038C0000036C0000034C0000032C0000068
S11300C030C000002EC000002CC000002AC0000078
S11300D028C0000026C0000024C0000022C0000088
S11300E020C0000011241FBECFEFD1E2DEBFCDBF80
S11300F000E00CBF12E0A0E0B2E0E2E9F3E000E0CF
S11301000BBF02C007900D92A230B107D9F722E0CD
S1130110A2E0B2E001C01D92A430B207E1F7BAD068
S113012036C16ECF88B1807888B94098419880E311
S113013088B983E090E0429AEFEFF7E43197F1F762
S113014000C000004298E6E6FEE03197F1F70000B7
S1130150019789F780E288B9429A8FEF97E4019773
S1130160F1F700C000004298E6E6FEE03197F1F7AF
S11301700000089598B19F7098B998B1282F207FF6
S1130180922B98B940984198429AEFEFF7E431974F
S1130190F1F700C000004298E6E6FEE03197F1F77F
S11301A0000098B19F7098B998B18295807F892B8F
S11301B088B940984198429A8FEF97E40197F1F7F4
S11301C000C000004298E6E6FEE03197F1F7000037
S11301D0089581E0CFDF86E0CDDF8EE0CBDF80E8DD
S11301E0C9CF089598B19F7098B998B1282F207FEE
S11301F0922B98B9409A4198429AEFEFF7E43197DD
S1130200F1F700C000004298E6E6FEE03197F1F70E
S1130210000098B19F7098B998B18295807F892B1E
S113022088B9409A4198429A8FEF97E40197F1F781
S113023000C000004298E6E6FEE03197F1F70000C6
S11302400895EF92FF920F931F93CF93DF93D82FCC
S1130250C92F85E88FDF84E08DDF04E010E00F2EE6
S1130260FAE0EF2EF12CF02D8D2F9C2FB70168D0E2
S1130270D62FC72F805DB6DF01501109A9F786E894
S113028079DF86E077DFDF91CF911F910F91FF90A7
S1130290EF90089587EF87B945DF9BDF80E28DBB40
S11302A088E080936A007894C1E0D0E080910202F3
S11302B090910302992354F08091020290910302D9
S11302C0C0DFD0930102C09300020CC080910202EF
S11302D090910302919581959109B3DF10920102E7
S11302E01092000280E27EDF84E67CDF80910002CF
S11302F090910102805D76DFD9CF1F920F920FB6E5
S11303000F9211248F939F93649B0AC080910202E1
S1130310909103020196909303028093020209C014
S113032080910202909103020197909303028093BB
S113033002029F918F910F900FBE0F901F901895FE
S113034097FB072E16F4009406D077FD08D00BD047
S113035007FC05D03EF4909581959F4F08957095C4
S113036061957F4F0895AA1BBB1B51E107C0AA1FCB
S1130370BB1FA617B70710F0A61BB70B881F991F42
S11303805A95A9F780959095BC01CD010895F894EC
S1050390FFCF99
S1050392010064
S9030000FC
