S01500005053325F4C43445F4D6F746F722E7372656398
S113000071C000008EC000008CC000008AC00000D7
S113001088C0000086C0000084C0000082C00000C8
S113002080C000007EC000007CC000007AC00000D8
S113003078C0000076C0000074C0000072C00000E8
S113004070C000006EC000006CC000006AC00000F8
S113005068C0000066C0000064C0000062C0000008
S113006060C000005EC000005CC000005AC0000018
S113007058C0000056C0000054C0000052C0000028
S113008050C000004EC000004CC000004AC0000038
S113009048C0000046C0000044C0000042C0000048
S11300A040C000003EC000003CC000003AC0000058
S11300B038C0000036C0000034C0000032C0000068
S11300C030C000002EC000002CC000002AC0000078
S11300D028C0000026C0000024C0000022C0000088
S11300E020C0000011241FBECFEFD1E2DEBFCDBF80
S11300F000E00CBF12E0A0E0B2E0EAE5FCE000E0C2
S11301000BBF02C007900D92AE34B107D9F722E0BD
S1130110AEE4B2E001C01D92AF39B207E1F783D378
S11301209AC56ECF86E69EE00197F1F700004098ED
S1130130419880E388B9429AEFEFF7E43197F1F7F9
S113014000C000004298E6E6FEE03197F1F70000B7
S11301504098419888B9429AEFEFF7E43197F1F764
S113016000C000004298E6E6FEE03197F1F7000097
S11301704098419888B9429A8FEF97E40197F1F734
S113018000C000004298E6E6FEE03197F1F7000077
S11301904098419880E288B9429A8FEF97E401979A
S11301A0F1F700C000004298089598B19F7098B983
S11301B098B1282F207F922B98B940984198429A61
S11301C0EFEFF7E43197F1F700C00000429898B1DF
S11301D09F7098B998B18295807F892B88B940988F
S11301E04198429A8FEF97E40197F1F700C000001D
S11301F04298089586E69EE00197F1F7000088E2B0
S1130200D4DF81E0D2DF86E0D0DF8EE0CEDF80E88D
S1130210CCCF089598B19F7098B998B1282F207FBA
S1130220922B98B9409A4198429AEFEFF7E43197AC
S1130230F1F700C00000429898B19F7098B998B146
S11302408295807F892B88B9409A4198429A8FEF92
S113025097E40197F1F700C000004298089580E800
S1130260A4CF0895CF93DF93EC018881882329F0EC
S11302702196D0DF89918111FCCFDF91CF91089530
S1130280823069F018F4813031F00895833059F0E8
S1130290843069F008958FE7860F87CF08958FEB38
S11302A0860F83CF089583E9860F7FCF089583ED6A
S11302B0860F7BCF08950F931F93CF93DF938A010B
S11302C0E901882311F0611102C0C9DF01C0D8DF40
S11302D0C530D105B9F49801329522952F702327A2
S11302E03F702327A7E4B3E0A7D496958795969506
S11302F0879596958795C096909369028093680236
S113030089DF04C0C430D10509F0B7C0980136951F
S113031027953695279536952795A5ECB0E28CD48C
S1130320AC01529542954F7045275F704527509315
S11303307302409372029A01ADECBCEC7DD49695A5
S1130340879596958795969587959C01220F331FDF
S1130350880F991F880F991F880F991F820F931F69
S11303609A01281B390BC901C09690936B028093A4
S11303706A0250DF98013695279536952795ABE7A5
S1130380B4E15AD4AC015695479550937302409307
S113039072029A01ADECBCEC4FD496958795969574
S11303A08795969587959C01220F331F880F991F77
S11303B0880F991F880F991F820F931F9A01281B7A
S11303C0390BC901C09690936D0280936C0222DFB1
S11303D004C0C230D10509F055C09801ADECBCECA5
S11303E02BD4AC0156954795569547955695479508
S11303F050937302409372029A011ED49695879586
S113040096958795969587959C01220F331F880FA3
S1130410991F880F991F880F991F820F931F9A01A4
S1130420281B390BC901C09690936F0280936E020A
S1130430F1DE9801ADECBCECFFD3969587959695CB
S11304408795969587959C01220F331F880F991FD6
S1130450880F991F880F991F820F931F9801281BDB
S1130460390BC901C0969093710280937002D2DE59
S1130470269764F085E4CEDE09C0C330D10509F0C7
S1130480A8CF78CFC130D10599F7D3CFDF91CF91E1
S11304901F910F91089580938C008093880080931E
S11304A08A008093B3000895E0E8F0E08081896ACF
S11304B08083E0EBF0E0808183688083E1E8F0E012
S11304C080818B608083E1EBF0E0808184608083B5
S11304D08FEF84B90895BDD287E090E0A8D38093CC
S11304E0670288E090E0A3D38093660286E090E000
S11304F09ED38093640285E090E099D38093650253
S113050080E090E487D390E090936302809362024A
S113051080E090E87FD390E0909361028093600242
S113052080E090E277D390E090935F0280935E0244
S113053080E090E16FD390E090935D0280935C0241
S113054080E190E067D390E0909355028093540249
S113055080E490E05FD390E0909353028093520242
S113056080E890E057D390E090935102809350023A
S113057080E290E04FD390E090934F0280934E023C
S113058080E098E047D390E090935B0280935A0216
S113059080E094E03FD390E0909359028093580216
S11305A080E091E037D390E0909357028093560215
S11305B0089586E982B98FEF9FE80197F1F700C0AB
S11305C000008091000267CF089589E682B98FEF19
S11305D09FE80197F1F700C00000809100025BCF13
S11305E0089583EC82B98FEF9FE80197F1F700C07B
S11305F00000809100024FCF08958CE382B98FEF01
S11306009FE80197F1F700C000008091000243CFFA
S113061008958FEF82B980E03ECF089583E382B9D5
S11306208EE180938C008093880080938A0080936D
S1130630B3008FEF9FE80197F1F700C00000089521
S11306408CEC82B98FEF9FE80197F1F700C00000AE
S11306508EE180938C008093880080938A0080933D
S1130660B3008FEF9FE80197F1F700C000000895F1
S113067032DF8091620290916302892B09F098C065
S113068080916702893708F495C0809167028D379D
S113069008F090C080916602893708F48BC080917D
S11306A066028D3708F484C085C08091670289375B
S11306B028F0809167028D3708F482C08091660229
S11306C08E3748F080916702893728F0809167025D
S11306D08D3708F480C0809167028E3748F080918E
S11306E06602883728F0809166028F3708F47EC04E
S11306F080916702883748F480916602883728F031
S1130700809166028F3708F47CC0809154029091E6
S11307105502892BE1F080910002909101020A9622
S11307208F3F910509F02CF490930102809300020D
S11307300EC08FEF90E090930102809300028091AD
S1130740520290915302892B09F066C015C0809122
S1130750520290915302892B79F08091000290917A
S113076001020A972AF0909301028093000204C0C8
S11307701092010210920002809160029091610235
S1130780892B39F08FEF9FE80197F1F700C0000043
S113079057DF80915E0290915F02892B09F442C079
S11307A08FEF9FE80197F1F700C0000037CF08955D
S11307B030DFABCF80916602883708F476CF7ECFE6
S11307C061E081E05DDD89E192E04CDDF2DE81E013
S11307D08093050173CF61E081E052DD85E292E010
S11307E041DDF3DE82E08093050175CF61E081E0B5
S11307F047DD82E392E036DD00DF84E0809305018B
S113080077CF61E081E03CDD80E492E02BDDE9DE3E
S113081088E08093050179CF8091000290910102D4
S11308200A97A1CF08956894AA24A1F86894CC24C7
S1130830C3F8DD24D394E12C08E011E024E048E07F
S113084051E061E088E091E017D1CFEFC4B92CDE2C
S1130850C1B912B887EF87B988B1807888B962DCEA
S1130860C9DC06DF409100025091010224E030E02F
S113087061E082E020DD8FEF9FE80197F1F700C08F
S11308800000EFCF1F93CF93DF9340E050E010E0E0
S1130890E1E0F0E0A82FB0E0C0919B02D0919C026F
S11308A02881BF0100908C0202C0660F771F0A9452
S11308B0E2F7962F909592239883642FCD01042E0E
S11308C002C0959587950A94E2F780FF10C0C09105
S11308D09902D0919A022881CF0100908B0202C024
S11308E0880F991F0A94E2F7822B888311C0C09164
S11308F09902D0919A022881CF0100908B0202C004
S1130900880F991F0A94E2F7982F90959223988361
S113091083E08A95F1F70000C0919B02D0919C027C
S113092098819F0100908C0202C0220F331F0A9409
S1130930E2F7292B2883C0919502D0919602288151
S113094030E00090890202C0359527950A94E2F7B9
S113095020FF07C0CF0102C0880F991F6A95E2F7F4
S1130960182B83E08A95F1F700004F5F5F4F483002
S1130970510509F091CFE0919B02F0919C022081F6
S113098081E090E000908C0202C0880F991F0A94C5
S1130990E2F7822B8083812FDF91CF911F910895FD
S11309A00F931F93CF93DF93A0919702B091980276
S11309B05C9121E030E0F90100908A0202C0EE0F60
S11309C0FF1F0A94E2F74E2F409545234C93E09184
S11309D09902F0919A027081A90100908B0202C0E1
S11309E0440F551F0A94E2F7472B4083E0919B0282
S11309F0F0919C02408100908C0202C0220F331FB0
S1130A000A94E2F7242B2083662371F0EC016150F1
S1130A10062F10E00F5F1F4F080F191F888132DF68
S1130A208993C017D107D1F7E0919702F09198020A
S1130A30208181E090E000908A0202C0880F991F13
S1130A400A94E2F7822B8083DF91CF911F910F915B
S1130A500895E4E7F2E081E0808382E48183E6E7BD
S1130A60F2E089E892E01192E817F907E1F765E10D
S1130A7084E792E095CF08952F923F924F925F9230
S1130A806F927F928F929F92AF92CF92DF92EF926A
S1130A900F931F93CF93DF93CDB7DEB767970FB64E
S1130AA0F894DEBF0FBECDBF90939E0280939D024B
S1130AB050939C0240939B0210939A0200939902D4
S1130AC0D0929802C09297024C0131E0831A9108A7
S1130AD090929402809293022A01A1E04A1A51084A
S1130AE050929202409291023801B1E06B1A71085F
S1130AF07092900260928F021601E1E02E1A310882
S1130B0030928E0220928D02FC013297F09396026D
S1130B10E093950220938C02E0928B02A0928A02C9
S1130B2060938902D2013C91E1E0F0E06F0102C0E0
S1130B30CC0CDD1C2A95E2F7232F2C292C93D10110
S1130B407C919F0102C0220F331FAA94E2F7272B46
S1130B502C93D3017C919F0102C0220F331FEA948E
S1130B60E2F7372F322B3C93D4017C9102C0EE0F75
S1130B70FF1F6A95E2F73E2F309537233C93DC0143
S1130B803C91E32BEC93FA018081C82AC082D801FE
S1130B908C91282B2C935DDF85E0E2E0F2E0DE010E
S1130BA0539601900D928A95E1F765E0CE01439644
S1130BB0F7DE89E0E7E0F2E0DE011A9601900D929B
S1130BC08A95E1F769E0CE010A96EADE89E0E0E180
S1130BD0F2E0DE01119601900D928A95E1F769E049
S1130BE0CE010196DDDE67960FB6F894DEBF0FBE28
S1130BF0CDBFDF91CF911F910F91EF90DF90CF90F8
S1130C00AF909F908F907F906F905F904F903F90A8
S1130C102F90089520917702309178022095309595
S1130C202823392381E0232B09F480E008958C588C
S1130C309D4FFC0180810895A29FB001B39FC00124
S1130C40A39F700D811D1124911DB29F700D811DF4
S10D0C501124911D0895F894FFCFBC
S1130C5A7B0001430001000144000103000000007D
S1130C6A014300005A5A5A5A5A466F72776172649B
S1130C7A20202020004261636B7761726420202067
S1130C8A2000526967687420536C696465202000E7
S1110C9A4C65667420536C696465202000006C
S9030000FC
