S01100006C73615F74657374312E7372656383
S113000071C0000079C0000077C0000075C0000016
S113001073C0000071C000006FC000006DC000001C
S11300206BC0000069C0000067C0000065C000002C
S113003063C0000061C000005FC000005DC000003C
S11300405BC0000059C0000057C0000055C000004C
S113005053C0000051C000004FC000004DC000005C
S11300604BC0000049C0000047C0000045C000006C
S113007043C0000041C000003FC000003DC000007C
S11300803BC0000039C0000037C0000035C000008C
S113009033C0000031C000002FC000002DC000009C
S11300A02BC0000029C0000027C0000025C00000AC
S11300B023C0000021C000001FC000001DC00000BC
S11300C01BC0000019C0000017C0000015C00000CC
S11300D013C0000011C000000FC000000DC00000DC
S11300E00BC0000011241FBECFEFD1E2DEBFCDBF95
S11300F000E00CBFA2D091C283CF88B1807888B9C8
S11301004098419880E388B983E090E0429AEFEF09
S1130110F7E43197F1F700C000004298E6E6FEE00C
S11301203197F1F70000019789F780E288B9429A84
S11301308FEF97E40197F1F700C000004298E6E6DC
S1130140FEE03197F1F70000089598B19F7098B9D7
S113015098B1282F207F922B98B940984198429AC1
S1130160EFEFF7E43197F1F700C00000429898B13F
S11301709F7098B998B18295807F892B88B9429AEB
S11301808FEF97E40197F1F700C0000042980895BB
S113019081E0DBDF86E0D9DF8EE0D7DF80E8D5CFF2
S11301A0089598B19F7098B998B1282F207F922B09
S11301B098B9409A4198429AEFEFF7E43197F1F7F2
S11301C000C00000429898B19F7098B998B1829588
S11301D0807F892B88B9429A8FEF97E40197F1F7D2
S11301E000C0000042980895EF92FF920F931F936E
S11301F0CF93DF93D82FC92F85E8A7DF84E0A5DF4D
S113020004E010E00F2EFAE0EF2EF12CF02D8D2FEC
S11302109C2FB701DBD1D62FC72F805DC2DF0150E1
S11302201109A9F780E891DF86E08FDFDF91CF9194
S11302301F910F91FF90EF9008958FEF87B910BA37
S11302405CDFA6DF83E680937C0087EE80937A00F0
S113025008E710E0C9E7D0E0F8018081688170E028
S1130260660F771F660F771F682B072E000C880B0D
S1130270990BBDD020E030E446E654E41DD020E0E4
S113028030E04CE852E43FD17FD0CB01ADDFFFEF4B
S11302902FEF8CE2F15020408040E1F700C00000D5
S11302A07C9B05C086E851DF8AE67BDFD5CF86E8F4
S11302B04CDF80E276DFD0CF0CD0EBC0E3D040F04F
S11302C0DAD030F021F45F3F19F0CCC0511115C1E0
S11302D0CFC0F0D098F39923C9F35523B1F3951BFC
S11302E0550BBB27AA2762177307840738F09F5F53
S11302F05F4F220F331F441FAA1FA9F333D00E2EC2
S11303003AF0E0E830D091505040E695001CCAF72E
S113031029D0FE2F27D0660F771F881FBB1F2617F3
S113032037074807AB07B0E809F0BB0B802DBF01C6
S1130330FF2793585F4F2AF09E3F510568F092C003
S1130340DCC05F3FECF3983EDCF3869577956795C8
S1130350B795F7959F5FC9F7880F911D9695879577
S113036097F90895E1E0660F771F881FBB1F621796
S113037073078407BA0720F0621B730B840BBA0B54
S1130380EE1F88F7E095089504D06894B111B5C0C4
S1130390089598D088F09F5790F0B92F9927B751B6
S11303A0A0F0D1F0660F771F881F991F1AF0BA9535
S11303B0C9F712C0B13081F09FD0B1E008959CC05C
S11303C0672F782F8827B85F39F0B93FCCF386952B
S11303D077956795B395D9F73EF490958095709588
S11303E061957F4F8F4F9F4F0895E89409C097FB05
S11303F03EF490958095709561957F4F8F4F9F4FF8
S11304009923A9F0F92F96E9BB279395F69587953B
S113041077956795B795F111F8CFFAF4BB0F11F4FE
S113042060FF1BC06F5F7F4F8F4F9F4F16C08823A5
S113043011F096E911C0772321F09EE8872F762FDB
S113044005C0662371F096E8862F70E060E02AF01C
S11304509A95660F771F881FDAF7880F9695879508
S113046097F9089597F99F6780E870E060E0089530
S11304709FEF80EC089500240A94161617061806B8
S11304800906089500240A94121613061406050694
S11304900895092E0394000C11F4882352F0BB0F25
S11304A040F4BF2B11F460FF04C06F5F7F4F8F4F88
S11304B09F4F089557FD9058440F551F59F05F3FC3
S11304C071F04795880F97FB991F61F09F3F79F072
S11304D087950895121613061406551FF2CF4695F4
S11304E0F1DF08C0161617061806991FF1CF869576
S11304F07105610508940895E894BB27662777275A
S1130500CB0197F908950BD0C4CFB5DF28F0BADF3B
S113051018F0952309F0A6CFABCF1124EECFCADF94
S1130520A0F3959FD1F3950F50E0551F629FF00102
S1130530729FBB27F00DB11D639FAA27F00DB11D5B
S1130540AA1F649F6627B00DA11D661F829F2227E4
S1130550B00DA11D621F739FB00DA11D621F839F6B
S1130560A00D611D221F749F3327A00D611D231F41
S1130570849F600D211D822F762F6A2F11249F578F
S113058050408AF0E1F088234AF0EE0FFF1FBB1FB2
S1130590661F771F881F91505040A9F79E3F510551
S11305A070F060CFAACF5F3FECF3983EDCF3869502
S11305B077956795B795F795E7959F5FC1F7FE2BFC
S11305C0880F911D9695879597F9089597FB072EA7
S11305D016F4009406D077FD08D00BD007FC05D0A4
S11305E03EF4909581959F4F0895709561957F4F46
S11305F00895AA1BBB1B51E107C0AA1FBB1FA61766
S1130600B70710F0A61BB70B881F991F5A95A9F7B7
S111061080959095BC01CD010895F894FFCF1C
S9030000FC
