S01100004D6F746F72746573742E7372656342
S113000071C000008EC000008CC000008AC00000D7
S113001088C0000086C0000084C0000082C00000C8
S113002080C000007EC000007CC000007AC00000D8
S113003078C0000076C0000074C0000072C00000E8
S113004070C000006EC000006CC000006AC00000F8
S113005068C0000066C0000064C0000062C0000008
S113006060C000005EC000005CC000005AC0000018
S113007058C0000056C0000054C0000052C0000028
S113008050C000004EC000004CC000004AC0000038
S113009048C0000046C0000044C0000042C0000048
S11300A040C000003EC000003CC000003AC0000058
S11300B038C0000036C0000034C0000032C0000068
S11300C030C000002EC000002CC000002AC0000078
S11300D028C0000026C0000024C0000022C0000088
S11300E020C0000011241FBECFEFD1E2DEBFCDBF80
S11300F000E00CBF12E0A0E0B2E0E8E2F5E000E0CE
S11301000BBF02C007900D92A031B107D9F722E0CE
S1130110A0E1B2E001C01D92A031B207E1F76AD1BB
S113012001C26ECF86E69EE00197F1F70000409889
S1130130419880E388B9429AEFEFF7E43197F1F7F9
S113014000C000004298E6E6FEE03197F1F70000B7
S11301504098419888B9429AEFEFF7E43197F1F764
S113016000C000004298E6E6FEE03197F1F7000097
S11301704098419888B9429A8FEF97E40197F1F734
S113018000C000004298E6E6FEE03197F1F7000077
S11301904098419880E288B9429A8FEF97E401979A
S11301A0F1F700C000004298089598B19F7098B983
S11301B098B1282F207F922B98B940984198429A61
S11301C0EFEFF7E43197F1F700C00000429898B1DF
S11301D09F7098B998B18295807F892B88B940988F
S11301E04198429A8FEF97E40197F1F700C000001D
S11301F04298089586E69EE00197F1F7000088E2B0
S1130200D4DF81E0D2DF86E0D0DF8EE0CEDF80E88D
S1130210CCCF089598B19F7098B998B1282F207FBA
S1130220922B98B9409A4198429AEFEFF7E43197AC
S1130230F1F700C00000429898B19F7098B998B146
S11302408295807F892B88B9409A4198429A8FEF92
S113025097E40197F1F700C0000042980895CF9306
S1130260DF93EC018881882329F02196D3DF8991DB
S11302708111FCCFDF91CF910895823069F018F499
S1130280813031F00895833059F0843069F0089555
S11302908FE7860F8ACF08958FEB860F86CF089558
S11302A083E9860F82CF089583ED860F7ECF08956C
S11302B0CF93DF9312B886E682B98FEF9FE8019758
S11302C0F1F700C000008EE12CE830E0C8E8D0E08F
S11302D0AAE8B0E043EB50E0F901808388838C9373
S11302E0FA018083EFEFFFE83197F1F700C00000D7
S11302F08B5F873389F7DF91CF910895CF93DF9395
S113030012B889E982B98FEF9FE80197F1F700C02D
S113031000008EE12CE830E0C8E8D0E0AAE8B0E0C4
S113032043EB50E0F901808388838C93FA01808346
S1130330EFEFFFE83197F1F700C000008B5F8733E0
S113034089F7DF91CF910895CF93DF9312B883ECAF
S113035082B98FEF9FE80197F1F700C000008EE1AA
S11303602CE830E0C8E8D0E0AAE8B0E043EB50E085
S1130370F901808388838C93FA018083EFEFFFE88F
S11303803197F1F700C000008B5F873389F7DF9165
S1130390CF910895CF93DF9312B88CE382B98FEF96
S11303A09FE80197F1F700C000008EE12CE830E0EF
S11303B0C8E8D0E0AAE8B0E043EB50E0F90180835C
S11303C088838C93FA018083EFEFFFE83197F1F78C
S11303D000C000008B5F873389F7DF91CF910895C8
S11303E012B810928C001092880010928A00109219
S11303F0B3000895E0E8F0E08081896A8083E0EB4F
S1130400F0E0808183688083E1E8F0E080818960A6
S11304108083E1EBF0E08081816080838FEF81B99C
S113042084B987B988B1807888B97CDEE3DED8DF07
S11304302FEF8FEF93EB215080409040E1F700C005
S1130440000080E092E00BDF61E081E016DF30DF46
S11304502FEF8FEF90EE215080409040E1F700C0E5
S11304600000BEDF439A2FEF8FEF99E521508040C3
S11304709040E1F700C00000439884E092E0EFDE92
S113048061E081E0FADE3ADF2FEF8FEF90EE21504A
S113049080409040E1F700C00000A2DF439A2FEFB4
S11304A08FEF99E5215080409040E1F700C00000B3
S11304B0439888E092E0D3DE61E081E0DEDE44DF51
S11304C02FEF8FEF90EE215080409040E1F700C075
S11304D0000086DF439A2FEF8FEF99E5215080408B
S11304E09040E1F700C0000043988CE092E0B7DE52
S11304F061E081E0C2DE4EDF2FEF8FEF90EE2150FE
S113050080409040E1F700C000006ADF439A2FEF7B
S11305108FEF99E5215080409040E1F700C0000042
S10B052043988FCFF894FFCF3C
S1130528465744004257440052534C004C534C0025
S9030000FC
