S015000070726F746F747970655F7265762E737265636D
S113000071C000008FC000008DC000008BC00000D4
S113001089C0000087C000005BC5000083C00000E9
S113002081C000007FC000007DC000007BC00000D4
S113003079C0000077C0000075C0000073C00000E4
S113004071C000006FC000006DC000006BC00000F4
S113005069C0000067C0000065C0000063C0000004
S113006061C000005FC000005DC000005BC0000014
S113007059C0000057C0000055C0000053C0000024
S113008051C000004FC000004DC000004BC0000034
S113009049C0000047C0000045C0000043C0000044
S11300A041C000003FC000003DC000003BC0000054
S11300B039C0000037C0000035C0000033C0000064
S11300C031C000002FC000002DC000002BC0000074
S11300D029C0000027C0000025C0000023C0000084
S11300E021C0000011241FBECFEFD1E2DEBFCDBF7F
S11300F000E00CBF12E0A0E0B2E0E0E7F3E100E0D2
S11301000BBF02C007900D92A033B107D9F722E0CC
S1130110A0E3B2E001C01D92A539B207E1F787D48C
S11301200C94B6096DCF86E69EE00197F1F70000C6
S11301304098419880E388B9429AEFEFF7E4319709
S1130140F1F700C000004298E6E6FEE03197F1F7CF
S113015000004098419888B9429AEFEFF7E431974C
S1130160F1F700C000004298E6E6FEE03197F1F7AF
S113017000004098419888B9429A8FEF97E401971C
S1130180F1F700C000004298E6E6FEE03197F1F78F
S113019000004098419880E288B9429A8FEF97E432
S11301A00197F1F700C000004298089598B19F703C
S11301B098B998B1282F207F922B98B940984198EC
S11301C0429AEFEFF7E43197F1F700C0000042984C
S11301D098B19F7098B998B18295807F892B88B91E
S11301E040984198429A8FEF97E40197F1F700C045
S11301F000004298089586E69EE00197F1F700001A
S113020088E2D4DF81E0D2DF86E0D0DF8EE0CEDF8B
S113021080E8CCCF089598B19F7098B998B1282FF1
S1130220207F922B98B9409A4198429AEFEFF7E4D5
S11302303197F1F700C00000429898B19F7098B9C7
S113024098B18295807F892B88B9409A4198429AC7
S11302508FEF97E40197F1F700C0000042980895EA
S113026080E8A4CF0895CF93DF93EC01888188239D
S113027029F02196D0DF89918111FCCFDF91CF91B4
S11302800895823069F018F4813031F00895833094
S113029059F0843069F008958FE7860F87CF089569
S11302A08FEB860F83CF089583E9860F7FCF089560
S11302B083ED860F7BCF08950F931F93CF93DF9326
S11302C08A01E901882311F0611102C0C9DF01C06C
S11302D0D8DFC530D105C1F49801329522952F702D
S11302E023273F702327A7E4B3E00E949309969540
S11302F087959695879596958795C09690935F0276
S113030080935E0288DF04C0C430D10509F0B8C010
S11303109801369527953695279536952795A5EC1A
S1130320B0E20E949309AC01529542954F70452763
S11303305F70452750936902409368029A01ADECBF
S1130340BCECF1D796958795969587959695879564
S11303509C01220F331F880F991F880F991F880F44
S1130360991F820F931F9A01281B390BC901C0964C
S113037090936102809360024EDF98013695279531
S113038036952795ABE7B4E1CED7AC0156954795A2
S113039050936902409368029A01ADECBCECC3D758
S11303A09695879596958795969587959C01220FA6
S11303B0331F880F991F880F991F880F991F820F69
S11303C0931F9A01281B390BC901C09690936302AD
S11303D08093620220DF04C0C230D10509F055C009
S11303E09801ADECBCEC9FD7AC015695479556955A
S11303F047955695479550936902409368029A0130
S113040092D79695879596958795969587959C010D
S1130410220F331F880F991F880F991F880F991F68
S1130420820F931F9A01281B390BC901C096909320
S1130430650280936402EFDE9801ADECBCEC73D7E7
S11304409695879596958795969587959C01220F05
S1130450331F880F991F880F991F880F991F820FC8
S1130460931F9801281B390BC901C096909367020A
S113047080936602D0DE269764F085E4CCDE09C062
S1130480C330D10509F0A8CF78CFC130D10599F791
S1130490D3CFDF91CF911F910F9108951092C50092
S11304A08FE58093C40088E18093C10086E0809347
S11304B0C2000895E0ECF0E0908195FFFDCF8093B9
S11304C0C60008950F931F93CF93DF930097C1F055
S11304D020E030E0EAE0F0E0A901440F551F220FCC
S11304E0331F220F331F220F331F240F351FBF0169
S11304F007D7280F391F862F972F009769F702C057
S113050020E030E0CAE0D0E0C901BE01F9D68B0199
S1130510805DD0DFC801BE01F3D6805DCBDFDF9103
S1130520CF911F910F91089580913C0290913D02CB
S1130530C9DF8AE0BFCF089583EC82B988E2809353
S11305408C008093B30080938A00809388002FEFFF
S11305508FE392E0215080409040E1F700C000001A
S113056008958CE382B988E280938C008093B30071
S113057080938A00809388002FEF8FE392E02150CC
S113058080409040E1F700C00000089512B82FEFBA
S11305908FE392E0215080409040E1F700C00000DA
S11305A0089586E682B982E380938C008093B30039
S11305B080938A0080938800089589E982B982E350
S11305C080938C008093B30080938A00809388008A
S11305D0089583E382B988E280938C008093B3000A
S11305E080938A008093880086E69EE00197F1F765
S11305F0000008958CEC82B988E280938C0080938B
S1130600B30080938A008093880086E69EE0019779
S1130610F1F70000089566D387E090E051D4809309
S11306205B0288E090E04CD480935A0286E090E02C
S113063047D48093580285E090E042D480935902D5
S113064080E090E430D490E0909357028093560277
S113065080E090E828D490E090935502809354026F
S113066080E090E220D490E0909353028093520271
S113067080E090E118D490E090935102809350026E
S113068080E190E010D490E090934702809346027A
S113069080E490E008D490E0909345028093440273
S11306A080E890E000D490E090934302809342026B
S11306B080E290E0F8D390E090934102809340026E
S11306C080E098E0F0D390E090934F0280934E0244
S11306D080E092E0E8D390E090934902809348024E
S11306E080E094E0E0D390E090934D0280934C023C
S11306F080E091E0D8D390E090934B0280934A023B
S1130700089589DF80914C0290914D02892B09F064
S113071028DF8091500290915102892B39F081E0B9
S113072090E090933F0280933E021BDF80914A0247
S113073090914B02892B09F0FFDE80915602909133
S11307405702892B29F022DF10923F0210923E02B9
S11307508091480290914902892B09F022DF80910F
S11307604E0290914F02892B09F027DF80915402A9
S113077090915502892B09F02CDF809152029091BF
S11307805302892B09F036CF08958F929F92AF922E
S1130790BF92CF92DF92EF92FF926091780070E067
S11307A070933D0260933C0280917900782B072E70
S11307B0000C880B990B8DD420E030E04FE754E413
S11307C0EDD320E030E04CE852E437D54FD47093B9
S11307D03D0260933C0264347105BCF080913402A4
S11307E090913502A0913602B0913702809338027D
S11307F090933902A0933A02B0933B026DE081E0FA
S113080040DD8BE192E02FDD43C063527109072E76
S1130810000C880B990B5DD46B017C0120910002C4
S113082030910102409102025091030206D54B011E
S11308305C0120913402309135024091360250918E
S11308403702C701B60141D3209130023091310201
S11308504091320250913302F0D49B01AC01C501A6
S1130860B40134D3609338027093390280933A020E
S113087090933B0260933402709335028093360266
S1130880909337026DE081E0FCDC8DE192E0EBDCDB
S113089020E030E0A9016091380270913902809122
S11308A03A0290913B0276D38823CCF461E082E053
S11308B0E8DC8FE192E0D7DC809138029091390234
S11308C0A0913A02B0913B02BC01CD019058D3D320
S11308D023E030E0AB0162E082E0EEDC15C061E0D1
S11308E082E0CFDC81E292E0BEDC6091380270915C
S11308F0390280913A0290913B02BDD323E030E06B
S1130900AB0162E082E0D8DC40913C0250913D02B0
S113091024E030E069E082E0CFDCFF90EF90DF90EC
S1130920CF90BF90AF909F908F900895CF92DF9219
S1130930EF92FF922ADFC0903802D0903902E09003
S11309403A02F0903B0220E030E040E252E4C7017A
S1130950B6016FD488234CF420E030E040E252EC3E
S1130960C701B60117D3181644F06DE081E089DCA5
S113097083E292E078DC0ADE55C020E030E0A90191
S1130980C701B60107D388234CF020E030E0A90169
S1130990C701B6014ED418160CF03BC0A70196014E
S11309A060E070E080E292E490D265D360938A00C4
S11309B020E030E040E252E4609138027091390264
S11309C080913A0290913B0281D255D36093B30057
S11309D020E030E040E252E4609138027091390244
S11309E080913A0290913B0271D245D360938C007E
S11309F0209138023091390240913A0250913B02E1
S1130A0060E070E080E292E460D235D360938800C5
S1130A1009C088E280938C008093880080938A00C8
S1130A208093B300FF90EF90DF90CF900895689487
S1130A30AA24A1F86894CC24C3F8DD24D394E12C2F
S1130A4008E011E024E048E051E061E088E091E052
S1130A505CD124DD80E28DBB88E080936A007894C9
S1130A6010BA83E480937C0087EE80937A00E0E8F8
S1130A70F0E08081896A8083E0EBF0E08081836824
S1130A808083E1E8F0E080818B608083E1EBF0E03B
S1130A908081846080838FEF81B984B987B988B1FC
S1130AA0807888B940DBA7DB71DD2BDE6EDE3CDDB0
S1130AB080913E0290913F020197B9F722DE36DF22
S1130AC033DD80913E0290913F020197B9F3EDCF5F
S1130AD01F920F920FB60F9211248F939F93649BD2
S1130AE00AC080915C0290915D02019690935D0230
S1130AF080935C0209C080915C0290915D02019731
S1130B0090935D0280935C029F918F910F900FBE32
S1130B100F901F9018951F93CF93DF9340E050E000
S1130B2010E0E1E0F0E0A82FB0E0C0919102D09194
S1130B3092022881BF010090820202C0660F771FD3
S1130B400A94E2F7962F909592239883642FCD010F
S1130B50042E02C0959587950A94E2F780FF10C091
S1130B60C0918F02D09190022881CF010090810220
S1130B7002C0880F991F0A94E2F7822B888311C060
S1130B80C0918F02D09190022881CF010090810200
S1130B9002C0880F991F0A94E2F7982F9095922328
S1130BA0988383E08A95F1F70000C0919102D09177
S1130BB0920298819F010090820202C0220F331F8B
S1130BC00A94E2F7292B2883C0918B02D0918C02DE
S1130BD0288130E000907F0202C0359527950A9461
S1130BE0E2F720FF07C0CF0102C0880F991F6A9562
S1130BF0E2F7182B83E08A95F1F700004F5F5F4F0F
S1130C004830510509F091CFE0919102F0919202A0
S1130C10208181E090E00090820202C0880F991F39
S1130C200A94E2F7822B8083812FDF91CF911F9169
S1130C3008950F931F93CF93DF93A0918D02B091EA
S1130C408E025C9121E030E0F9010090800202C044
S1130C50EE0FFF1F0A94E2F74E2F409545234C9365
S1130C60E0918F02F09190027081A90100908102BD
S1130C7002C0440F551F0A94E2F7472B4083E091CA
S1130C809102F091920240810090820202C0220FF0
S1130C90331F0A94E2F7242B2083662371F0EC01BE
S1130CA06150062F10E00F5F1F4F080F191F888136
S1130CB032DF8993C017D107D1F7E0918D02F0910B
S1130CC08E02208181E090E00090800202C0880FB3
S1130CD0991F0A94E2F7822B8083DF91CF911F91B1
S1130CE00F910895EAE6F2E081E0808382E4818353
S1130CF0ECE6F2E08FE792E01192E817F907E1F7EA
S1130D0065E18AE692E095CF08952F923F924F9243
S1130D105F926F927F928F929F92AF92CF92DF9267
S1130D20EF920F931F93CF93DF93CDB7DEB76797FF
S1130D300FB6F894DEBF0FBECDBF9093940280939C
S1130D409302509392024093910210939002009365
S1130D508F02D0928E02C0928D024C0131E0831A30
S1130D60910890928A02809289022A01A1E04A1A8B
S1130D70510850928802409287023801B1E06B1A00
S1130D80710870928602609285021601E1E02E1AC3
S1130D9031083092840220928302FC013297F0934E
S1130DA08C02E0938B0220938202E0928102A09253
S1130DB0800260937F02D2013C91E1E0F0E06F0198
S1130DC002C0CC0CDD1C2A95E2F7232F2C292C938E
S1130DD0D1017C919F0102C0220F331FAA94E2F734
S1130DE0272B2C93D3017C919F0102C0220F331F28
S1130DF0EA94E2F7372F322B3C93D4017C9102C062
S1130E00EE0FFF1F6A95E2F73E2F309537233C9390
S1130E10DC013C91E32BEC93FA018081C82AC08267
S1130E20D8018C91282B2C935DDF85E0E4E0F2E07F
S1130E30DE01539601900D928A95E1F765E0CE01AB
S1130E404396F7DE89E0E9E0F2E0DE011A960190CC
S1130E500D928A95E1F769E0CE010A96EADE89E00F
S1130E60E2E1F2E0DE01119601900D928A95E1F73C
S1130E7069E0CE010196DDDE67960FB6F894DEBF19
S1130E800FBECDBFDF91CF911F910F91EF90DF90F7
S1130E90CF90AF909F908F907F906F905F904F9086
S1130EA03F902F90089520916D0230916E0220950D
S1130EB030952823392381E0232B09F480E0089519
S1130EC086599D4FFC01808108955058BB27AA275D
S1130ED00ED075C166D130F06BD120F031F49F3F54
S1130EE011F41EF45BC10EF4E095E7FB51C1E92F48
S1130EF077D180F3BA17620773078407950718F050
S1130F0071F49EF58FC10EF4E0950B2EBA2FA02D2F
S1130F100B01B90190010C01CA01A0011124FF27A2
S1130F20591B99F0593F50F4503E68F11A16F0409D
S1130F30A22F232F342F4427585FF3CF469537959C
S1130F402795A795F0405395C9F77EF41F16BA0B61
S1130F50620B730B840BBAF09150A1F0FF0FBB1F0F
S1130F60661F771F881FC2F70EC0BA0F621F731F58
S1130F70841F48F4879577956795B795F7959E3FB5
S1130F8008F0B3CF9395880F08F09927EE0F979543
S1130F9087950895D9D008F481E008950CD00FC145
S1130FA007D140F0FED030F021F45F3F19F0F0C0DB
S1130FB0511139C1F3C014D198F39923C9F35523BE
S1130FC0B1F3951B550BBB27AA2762177307840738
S1130FD038F09F5F5F4F220F331F441FAA1FA9F3EE
S1130FE033D00E2E3AF0E0E830D091505040E695E0
S1130FF0001CCAF729D0FE2F27D0660F771F881F41
S1131000BB1F261737074807AB07B0E809F0BB0B2F
S1131010802DBF01FF2793585F4F2AF09E3F510553
S113102068F0B6C000C15F3FECF3983EDCF38695F0
S113103077956795B795F7959F5FC9F7880F911DC9
S11310409695879597F90895E1E0660F771F881FB5
S1131050BB1F621773078407BA0720F0621B730B68
S1131060840BBA0BEE1F88F7E095089504D06894BA
S1131070B111D9C00895BCD088F09F5790F0B92F12
S11310809927B751A0F0D1F0660F771F881F991FD9
S11310901AF0BA95C9F712C0B13081F0C3D0B1E0EB
S11310A00895C0C0672F782F8827B85F39F0B93FFB
S11310B0CCF3869577956795B395D9F73EF49095DB
S11310C08095709561957F4F8F4F9F4F0895E89459
S11310D009C097FB3EF490958095709561957F4F7C
S11310E08F4F9F4F9923A9F0F92F96E9BB2793952A
S11310F0F695879577956795B795F111F8CFFAF43A
S1131100BB0F11F460FF1BC06F5F7F4F8F4F9F4F6A
S113111016C0882311F096E911C0772321F09EE8C8
S1131120872F762F05C0662371F096E8862F70E02E
S113113060E02AF09A95660F771F881FDAF7880F08
S11311409695879597F90895990F0008550FAA0B5E
S1131150E0E8FEEF16161706E807F907C0F01216C6
S11311601306E407F50798F0621B730B840B950BC9
S113117039F40A2661F0232B242B252B21F408951E
S11311800A2609F4A140A6958FEF811D811D0895BB
S113119097F99F6780E870E060E008959FEF80EC26
S11311A0089500240A9416161706180609060895C9
S11311B000240A9412161306140605060895092E2F
S11311C00394000C11F4882352F0BB0F40F4BF2B9E
S11311D011F460FF04C06F5F7F4F8F4F9F4F0895DE
S11311E057FD9058440F551F59F05F3F71F04795D4
S11311F0880F97FB991F61F09F3F79F087950895B9
S1131200121613061406551FF2CF4695F1DF08C0D7
S1131210161617061806991FF1CF869571056105F4
S113122008940895E894BB2766277727CB0197F99C
S113123008958ADF08F48FEF08950BD0C0CFB1DF93
S113124028F0B6DF18F0952309F0A2CFA7CF112418
S1131250EACFC6DFA0F3959FD1F3950F50E0551F59
S1131260629FF001729FBB27F00DB11D639FAA27F7
S1131270F00DB11DAA1F649F6627B00DA11D661F46
S1131280829F2227B00DA11D621F739FB00DA11D67
S1131290621F839FA00D611D221F749F3327A00D21
S11312A0611D231F849F600D211D822F762F6A2FBD
S11312B011249F5750408AF0E1F088234AF0EE0F42
S11312C0FF1FBB1F661F771F881F91505040A9F74F
S11312D09E3F510570F05CCFA6CF5F3FECF3983E84
S11312E0DCF3869577956795B795F795E7959F5FB6
S11312F0C1F7FE2B880F911D9695879597F9089550
S113130097FB072E16F4009406D077FD08D01AD068
S113131007FC05D03EF4909581959F4F08957095F4
S113132061957F4F0895A29FB001B39FC001A39F11
S1131330700D811D1124911DB29F700D811D11240A
S1131340911D0895AA1BBB1B51E107C0AA1FBB1F17
S1131350A617B70710F0A61BB70B881F991F5A953D
S1131360A9F780959095BC01CD010895F894FFCF1D
S11313700000803F0143000100014400010300001C
S11313800000014300005A5A5A5A5A69006F002D4E
S1131390002B0068006A756E630020202020000086
S9030000FC
