S00F00005053325F6C63642E73726563AE
S113000071C000008EC000008CC000008AC00000D7
S113001088C0000086C0000084C0000082C00000C8
S113002080C000007EC000007CC000007AC00000D8
S113003078C0000076C0000074C0000072C00000E8
S113004070C000006EC000006CC000006AC00000F8
S113005068C0000066C0000064C0000062C0000008
S113006060C000005EC000005CC000005AC0000018
S113007058C0000056C0000054C0000052C0000028
S113008050C000004EC000004CC000004AC0000038
S113009048C0000046C0000044C0000042C0000048
S11300A040C000003EC000003CC000003AC0000058
S11300B038C0000036C0000034C0000032C0000068
S11300C030C000002EC000002CC000002AC0000078
S11300D028C0000026C0000024C0000022C0000088
S11300E020C0000011241FBECFEFD1E2DEBFCDBF80
S11300F000E00CBF12E0A0E0B2E0E0E0FAE000E0D3
S11301000BBF02C007900D92A432B107D9F722E0C9
S1130110A4E2B2E001C01D92A537B207E1F729D2EB
S11301206DC46ECF86E69EE00197F1F7000040981B
S1130130419880E388B9429AEFEFF7E43197F1F7F9
S113014000C000004298E6E6FEE03197F1F70000B7
S11301504098419888B9429AEFEFF7E43197F1F764
S113016000C000004298E6E6FEE03197F1F7000097
S11301704098419888B9429A8FEF97E40197F1F734
S113018000C000004298E6E6FEE03197F1F7000077
S11301904098419880E288B9429A8FEF97E401979A
S11301A0F1F700C000004298089598B19F7098B983
S11301B098B1282F207F922B98B940984198429A61
S11301C0EFEFF7E43197F1F700C00000429898B1DF
S11301D09F7098B998B18295807F892B88B940988F
S11301E04198429A8FEF97E40197F1F700C000001D
S11301F04298089586E69EE00197F1F7000088E2B0
S1130200D4DF81E0D2DF86E0D0DF8EE0CEDF80E88D
S1130210CCCF089598B19F7098B998B1282F207FBA
S1130220922B98B9409A4198429AEFEFF7E43197AC
S1130230F1F700C00000429898B19F7098B998B146
S11302408295807F892B88B9409A4198429A8FEF92
S113025097E40197F1F700C000004298089580E800
S1130260A4CF0895CF93DF93EC018881882329F0EC
S11302702196D0DF89918111FCCFDF91CF91089530
S1130280823069F018F4813031F00895833059F0E8
S1130290843069F008958FE7860F87CF08958FEB38
S11302A0860F83CF089583E9860F7FCF089583ED6A
S11302B0860F7BCF08950F931F93CF93DF938A010B
S11302C0E901882311F0611102C0C9DF01C0D8DF40
S11302D0C530D105B9F49801329522952F702327A2
S11302E03F702327A7E4B3E07AD396958795969534
S11302F0879596958795C09690933F0280933E028A
S113030089DF04C0C430D10509F0B7C0980136951F
S113031027953695279536952795A5ECB0E25FD3BA
S1130320AC01529542954F7045275F704527509315
S11303304902409348029A01ADECBCEC50D3969527
S1130340879596958795969587959C01220F331FDF
S1130350880F991F880F991F880F991F820F931F69
S11303609A01281B390BC901C096909341028093CE
S1130370400250DF98013695279536952795ABE7CF
S1130380B4E12DD3AC01569547955093490240935F
S113039048029A01ADECBCEC22D3969587959695CC
S11303A08795969587959C01220F331F880F991F77
S11303B0880F991F880F991F820F931F9A01281B7A
S11303C0390BC901C096909343028093420222DF05
S11303D004C0C230D10509F055C09801ADECBCECA5
S11303E0FED2AC0156954795569547955695479537
S11303F050934902409348029A01F1D29695879509
S113040096958795969587959C01220F331F880FA3
S1130410991F880F991F880F991F820F931F9A01A4
S1130420281B390BC901C09690934502809344025E
S1130430F1DE9801ADECBCECD2D2969587959695F9
S11304408795969587959C01220F331F880F991FD6
S1130450880F991F880F991F820F931F9801281BDB
S1130460390BC901C0969093470280934602D2DEAD
S1130470269764F085E4CEDE09C0C330D10509F0C7
S1130480A8CF78CFC130D10599F7D3CFDF91CF91E1
S11304901F910F910895B0D187E090E09BD2809393
S11304A03D0288E090E096D280933C0286E090E0A2
S11304B091D280933A0285E090E08CD280933B0203
S11304C080E090E47AD290E09093390280933802ED
S11304D080E090E872D290E09093370280933602E5
S11304E080E090E26AD290E09093350280933402E7
S11304F080E090E162D290E09093330280933202E4
S113050080E190E05AD290E090932B0280932A02EB
S113051080E490E052D290E09093290280932802E4
S113052080E890E04AD290E09093270280932602DC
S113053080E290E042D290E09093250280932402DE
S113054080E098E03AD290E09093310280933002B8
S113055080E094E032D290E090932F0280932E02B8
S113056080E091E02AD290E090932D0280932C02B7
S113057008956894AA24A1F86894CC24C3F8DD24CF
S1130580D394E12C08E011E024E048E051E061E07C
S113059088E091E044D18FEF87B988B1807888B939
S11305A0C1DD28DE78DF62E081E06ADE87E192E087
S11305B059DE66E081E064DE8AE192E053DE6AE0BF
S11305C081E05EDE8DE192E04DDE6EE081E058DE9A
S11305D080E292E047DE40913B0250E023E030E0CD
S11305E061E082E068DE40913A0250E023E030E0CE
S11305F065E082E060DE40913D0250E023E030E0BF
S113060069E082E058DE40913C0250E023E030E0B3
S11306106DE082E050DE2FEF8FE794E021508040C0
S11306209040E1F700C00000BDCF1F93CF93DF934C
S113063040E050E010E0E1E0F0E0A82FB0E0C0912D
S11306407102D09172022881BF010090620202C03F
S1130650660F771F0A94E2F7962F9095922398835A
S1130660642FCD01042E02C0959587950A94E2F774
S113067080FF10C0C0916F02D09170022881CF0119
S11306800090610202C0880F991F0A94E2F7822B3E
S1130690888311C0C0916F02D09170022881CF016C
S11306A00090610202C0880F991F0A94E2F7982F04
S11306B090959223988383E08A95F1F70000C09186
S11306C07102D091720298819F010090620202C06F
S11306D0220F331F0A94E2F7292B2883C0916B025F
S11306E0D0916C02288130E000905F0202C0359501
S11306F027950A94E2F720FF07C0CF0102C0880FB4
S1130700991F6A95E2F7182B83E08A95F1F70000A8
S11307104F5F5F4F4830510509F091CFE09171026E
S1130720F0917202208181E090E00090620202C0A8
S1130730880F991F0A94E2F7822B8083812FDF911F
S1130740CF911F9108950F931F93CF93DF93A0919F
S11307506D02B0916E025C9121E030E0F9010090ED
S1130760600202C0EE0FFF1F0A94E2F74E2F40957D
S113077045234C93E0916F02F09170027081A901BE
S11307800090610202C0440F551F0A94E2F7472B00
S11307904083E0917102F091720240810090620204
S11307A002C0220F331F0A94E2F7242B208366230E
S11307B071F0EC016150062F10E00F5F1F4F080F1E
S11307C0191F888132DF8993C017D107D1F7E091CF
S11307D06D02F0916E02208181E090E00090600251
S11307E002C0880F991F0A94E2F7822B8083DF915D
S11307F0CF911F910F910895EAE4F2E081E08083A4
S113080082E48183ECE4F2E08FE592E01192E81750
S1130810F907E1F765E18AE492E095CF08952F9214
S11308203F924F925F926F927F928F929F92AF927C
S1130830CF92DF92EF920F931F93CF93DF93CDB7B5
S1130840DEB767970FB6F894DEBF0FBECDBF9093A7
S11308507402809373025093720240937102109356
S1130860700200936F02D0926E02C0926D024C012E
S113087031E0831A910890926A02809269022A01F7
S1130880A1E04A1A51085092680240926702380166
S1130890B1E06B1A710870926602609265021601EB
S11308A0E1E02E1A31083092640220926302FC01C6
S11308B03297F0936C02E0936B0220936202E09211
S11308C06102A092600260935F02D2013C91E1E078
S11308D0F0E06F0102C0CC0CDD1C2A95E2F7232F57
S11308E02C292C93D1017C919F0102C0220F331F2C
S11308F0AA94E2F7272B2C93D3017C919F0102C089
S1130900220F331FEA94E2F7372F322B3C93D401A2
S11309107C9102C0EE0FFF1F6A95E2F73E2F3095DF
S113092037233C93DC013C91E32BEC93FA01808167
S1130930C82AC082D8018C91282B2C935DDF85E0D6
S1130940E0E0F2E0DE01539601900D928A95E1F722
S113095065E0CE014396F7DE89E0E5E0F2E0DE01F2
S11309601A9601900D928A95E1F769E0CE010A96F4
S1130970EADE89E0EEE0F2E0DE01119601900D92EC
S11309808A95E1F769E0CE010196DDDE67960FB640
S1130990F894DEBF0FBECDBFDF91CF911F910F91B1
S11309A0EF90DF90CF90AF909F908F907F906F905B
S11309B05F904F903F902F90089520914D02309179
S11309C04E02209530952823392381E0232B09F406
S11309D080E00895865B9D4FFC0180810895A29F6D
S11309E0B001B39FC001A39F700D811D1124911DFF
S11309F0B29F700D811D1124911D0895F894FFCFAD
S1130A000143000100014400010300000000014310
S1130A1000005A5A5A5A5A5258005259004C580017
S1070A204C59000029
S9030000FC
