S018000070726F746F747970655F626173655F312E737265638C
S113000071C000008EC000008CC000008AC00000D7
S113001088C0000086C00000C4C4000082C0000084
S113002080C000007EC000007CC000007AC00000D8
S113003078C0000076C0000074C0000072C00000E8
S113004070C000006EC000006CC000006AC00000F8
S113005068C0000066C0000064C0000062C0000008
S113006060C000005EC000005CC000005AC0000018
S113007058C0000056C0000054C0000052C0000028
S113008050C000004EC000004CC000004AC0000038
S113009048C0000046C0000044C0000042C0000048
S11300A040C000003EC000003CC000003AC0000058
S11300B038C0000036C0000034C0000032C0000068
S11300C030C000002EC000002CC000002AC0000078
S11300D028C0000026C0000024C0000022C0000088
S11300E020C0000011241FBECFEFD1E2DEBFCDBF80
S11300F000E00CBF12E0A0E0B2E0E6EEF0E100E0C8
S11301000BBF02C007900D92A033B107D9F722E0CC
S1130110A0E3B2E001C01D92A938B207E1F7EED224
S1130120E0C76ECF86E69EE00197F1F700004098A5
S1130130419880E388B9429AEFEFF7E43197F1F7F9
S113014000C000004298E6E6FEE03197F1F70000B7
S11301504098419888B9429AEFEFF7E43197F1F764
S113016000C000004298E6E6FEE03197F1F7000097
S11301704098419888B9429A8FEF97E40197F1F734
S113018000C000004298E6E6FEE03197F1F7000077
S11301904098419880E288B9429A8FEF97E401979A
S11301A0F1F700C000004298089598B19F7098B983
S11301B098B1282F207F922B98B940984198429A61
S11301C0EFEFF7E43197F1F700C00000429898B1DF
S11301D09F7098B998B18295807F892B88B940988F
S11301E04198429A8FEF97E40197F1F700C000001D
S11301F04298089586E69EE00197F1F7000088E2B0
S1130200D4DF81E0D2DF86E0D0DF8EE0CEDF80E88D
S1130210CCCF089598B19F7098B998B1282F207FBA
S1130220922B98B9409A4198429AEFEFF7E43197AC
S1130230F1F700C00000429898B19F7098B998B146
S11302408295807F892B88B9409A4198429A8FEF92
S113025097E40197F1F700C000004298089580E800
S1130260A4CF0895CF93DF93EC018881882329F0EC
S11302702196D0DF89918111FCCFDF91CF91089530
S1130280823069F018F4813031F00895833059F0E8
S1130290843069F008958FE7860F87CF08958FEB38
S11302A0860F83CF089583E9860F7FCF089583ED6A
S11302B0860F7BCF08950F931F93CF93DF938A010B
S11302C0E901882311F0611102C0C9DF01C0D8DF40
S11302D0C530D105B9F49801329522952F702327A2
S11302E03F702327A7E4B3E0EDD6969587959695BE
S11302F0879596958795C096909353028093520262
S113030089DF04C0C430D10509F0B7C0980136951F
S113031027953695279536952795A5ECB0E2D2D644
S1130320AC01529542954F7045275F704527509315
S11303305D0240935C029A01ADECBCECC3D6969589
S1130340879596958795969587959C01220F331FDF
S1130350880F991F880F991F880F991F820F931F69
S11303609A01281B390BC901C096909355028093BA
S1130370540250DF98013695279536952795ABE7BB
S1130380B4E1A0D6AC015695479550935D024093D5
S11303905C029A01ADECBCEC95D696958795969542
S11303A08795969587959C01220F331F880F991F77
S11303B0880F991F880F991F820F931F9A01281B7A
S11303C0390BC901C096909357028093560222DFDD
S11303D004C0C230D10509F055C09801ADECBCECA5
S11303E071D6AC01569547955695479556954795C0
S11303F050935D0240935C029A0164D6969587956A
S113040096958795969587959C01220F331F880FA3
S1130410991F880F991F880F991F820F931F9A01A4
S1130420281B390BC901C096909359028093580236
S1130430F1DE9801ADECBCEC45D696958795969582
S11304408795969587959C01220F331F880F991FD6
S1130450880F991F880F991F820F931F9801281BDB
S1130460390BC901C09690935B0280935A02D2DE85
S1130470269764F085E4CEDE09C0C330D10509F0C7
S1130480A8CF78CFC130D10599F7D3CFDF91CF91E1
S11304901F910F91089599D387E090E084D48093BD
S11304A04F0288E090E07FD480934E0286E090E093
S11304B07AD480934C0285E090E075D480934D0209
S11304C080E090E463D490E090934B0280934A02DE
S11304D080E090E85BD490E09093490280934802D6
S11304E080E090E253D490E09093470280934602D8
S11304F080E090E14BD490E09093450280934402D5
S113050080E190E043D490E090933D0280933C02DC
S113051080E490E03BD490E090933B0280933A02D5
S113052080E890E033D490E09093390280933802CD
S113053080E290E02BD490E09093370280933602CF
S113054080E098E023D490E09093430280934202A9
S113055080E094E01BD490E09093410280934002A9
S113056080E091E013D490E090933F0280933E02A8
S1130570089591DF8091400290914102892B41F0CE
S113058081E090E0909335028093340286E982B949
S113059080913E0290913F02892B41F081E090E0EE
S11305A0909335028093340289E682B980914A029D
S11305B090914B02892B31F08FEF82B91092350262
S11305C01092340208956091780070E070933102C3
S11305D06093300280917900782B072E000C880BF1
S11305E0990B81D420E030E04FE754E4E1D320E0DC
S11305F030E04CE852E403D543D470933102609365
S1130600300263527109072E000C880B990B6BD4CE
S113061020910002309101024091020250910302A4
S1130620EED42ED4709333026093320277239CF479
S113063061E082E025DE8DE192E014DE4091320239
S11306405091330251954195510923E030E062E025
S113065082E031DE0FC061E082E012DE8FE192E0E1
S113066001DE409132025091330223E030E062E037
S113067082E021DE409130025091310224E030E0EA
S113068069E082E018DE20913202309133021216C2
S11306901306A4F48EE1982F921B90938A00E2E350
S11306A0F2E09081925E9093B3009081925E909379
S11306B08C009081891B8093880008953323A4F4CF
S11306C08EE1982F921B90938A00E2E3F2E09081EE
S11306D0925E9093B3009081925E90938C0090818F
S11306E0891B8093880008958EE180938C00809309
S11306F0880080938A008093B30008956894AA24A4
S1130700A1F86894CC24C3F8DD24D394E12C08E048
S113071011E024E048E051E061E088E091E068D233
S113072080E28DBB88E080936A00789410BA83E4F9
S113073080937C0087EE80937A00E0E8F0E080818B
S1130740896A8083E0EBF0E0808183688083E1E85C
S1130750F0E080818B608083E1EBF0E08081846055
S113076080831FEF11B914B917B988B1807888B99B
S1130770D9DC40DD12B908E710E0C9E7D0E0DD2498
S1130780DA94F7DEF801608170E0709331026093CF
S113079030028881782B072E000C880B990BA3D389
S11307A020E030E04FE754E403D320E030E04CE8AD
S11307B052E425D465D370933102609330026352BE
S11307C07109072E000C880B990B8DD32091000220
S11307D030910102409102025091030210D450D38F
S11307E0709333026093320277239CF461E082E0D9
S11307F047DD8DE192E036DD4091320250913302C3
S113080051954195510923E030E062E082E053DDE7
S11308100FC061E082E034DD8FE192E023DD40919E
S113082032025091330223E030E062E082E043DDA3
S1130830409130025091310224E030E069E082E0DE
S11308403ADDFFEF2FE786E1F15020408040E1F7E9
S113085000C000008091340290913502019709F0A4
S113086090CF87DE8091500290915102893C974E3F
S11308700CF482C0809150029091510288339841C7
S11308800CF48DC079C075DE8091340290913502EC
S1130890892BC9F32FEF8FEF98E0215080409040CF
S11308A0E1F700C000006DE081E0EADC87E292E05D
S11308B0D9DC10925102109250027C9B30C0D2B805
S11308C01092510210925002439AEFEFFFEF29E584
S11308D0E150F0402040E1F700C0000043986DE093
S11308E081E0CEDC81E292E0BDDC10923502109210
S11308F034023FDE8091340290913502892BC9F392
S11309008FEF9FEFE8E081509040E040E1F700C0B6
S113091000006DE081E0B4DC86E292E0A3DC80912B
S1130920500290915102992354F0409150025091F9
S1130930510225E030E061E081E0BDDC0CC0409173
S113094050025091510251954195510925E030E0F2
S113095061E081E0B0DC8091040290910502881688
S1130960990609F40ECF1092510210925002809011
S113097004029090050205CFD2B81092350210926D
S113098034026DE081E07CDC8BE292E06BDC8091F0
S1130990340290913502892B09F475CF7BCF13DE95
S11309A08CCF1F920F920FB60F9211248F939F93A7
S11309B0649B10C0809150029091510201969093D3
S11309C051028093500281E090E09093050280935D
S11309D004020DC0809150029091510201979093AE
S11309E051028093500210920502109204029F91CA
S11309F08F910F900FBE0F901F9018951F93CF9358
S1130A00DF9340E050E010E0E1E0F0E0A82FB0E038
S1130A10C0918502D09186022881BF0100907602A0
S1130A2002C0660F771F0A94E2F7962F90959223DF
S1130A309883642FCD01042E02C0959587950A945E
S1130A40E2F780FF10C0C0918302D0918402288114
S1130A50CF010090750202C0880F991F0A94E2F733
S1130A60822B888311C0C0918302D0918402288193
S1130A70CF010090750202C0880F991F0A94E2F713
S1130A80982F90959223988383E08A95F1F700003C
S1130A90C0918502D091860298819F0100907602D0
S1130AA002C0220F331F0A94E2F7292B2883C09136
S1130AB07F02D0918002288130E00090730202C04E
S1130AC0359527950A94E2F720FF07C0CF0102C0AD
S1130AD0880F991F6A95E2F7182B83E08A95F1F73E
S1130AE000004F5F5F4F4830510509F091CFE0910E
S1130AF08502F0918602208181E090E000907602E8
S1130B0002C0880F991F0A94E2F7822B8083812FF9
S1130B10DF91CF911F9108950F931F93CF93DF938C
S1130B20A0918102B09182025C9121E030E0F90150
S1130B300090740202C0EE0FFF1F0A94E2F74E2FDA
S1130B40409545234C93E0918302F0918402708197
S1130B50A9010090750202C0440F551F0A94E2F7E0
S1130B60472B4083E0918502F091860240810090FA
S1130B70760202C0220F331F0A94E2F7242B20834B
S1130B80662371F0EC016150062F10E00F5F1F4FD8
S1130B90080F191F888132DF8993C017D107D1F755
S1130BA0E0918102F0918202208181E090E0009046
S1130BB0740202C0880F991F0A94E2F7822B808383
S1130BC0DF91CF911F910F910895EEE5F2E081E05E
S1130BD0808382E48183E0E6F2E083E792E011928D
S1130BE0E817F907E1F765E18EE592E095CF0895FE
S1130BF02F923F924F925F926F927F928F929F9229
S1130C00AF92CF92DF92EF920F931F93CF93DF9324
S1130C10CDB7DEB767970FB6F894DEBF0FBECDBF72
S1130C2090938802809387025093860240938502B2
S1130C301093840200938302D0928202C0928102B4
S1130C404C0131E0831A910890927E0280927D02D9
S1130C502A01A1E04A1A510850927C0240927B0278
S1130C603801B1E06B1A710870927A0260927902CD
S1130C701601E1E02E1A31083092780220927702B0
S1130C80FC013297F0938002E0937F022093760276
S1130C90E0927502A092740260937302D2013C91B7
S1130CA0E1E0F0E06F0102C0CC0CDD1C2A95E2F714
S1130CB0232F2C292C93D1017C919F0102C0220F58
S1130CC0331FAA94E2F7272B2C93D3017C919F0125
S1130CD002C0220F331FEA94E2F7372F322B3C93E2
S1130CE0D4017C9102C0EE0FFF1F6A95E2F73E2FFC
S1130CF0309537233C93DC013C91E32BEC93FA01D0
S1130D008081C82AC082D8018C91282B2C935DDF66
S1130D1085E0E6E0F2E0DE01539601900D928A95BB
S1130D20E1F765E0CE014396F7DE89E0EBE0F2E01F
S1130D30DE011A9601900D928A95E1F769E0CE01E1
S1130D400A96EADE89E0E4E1F2E0DE011196019020
S1130D500D928A95E1F769E0CE010196DDDE679692
S1130D600FB6F894DEBF0FBECDBFDF91CF911F91B8
S1130D700F91EF90DF90CF90AF909F908F907F90E6
S1130D806F905F904F903F902F9008952091610253
S1130D9030916202209530952823392381E0232B5A
S1130DA009F480E00895825A9D4FFC0180810895E2
S1130DB00CD0EBC0E3D040F0DAD030F021F45F3F48
S1130DC019F0CCC0511115C1CFC0F0D098F39923BC
S1130DD0C9F35523B1F3951B550BBB27AA276217FB
S1130DE07307840738F09F5F5F4F220F331F441F40
S1130DF0AA1FA9F333D00E2E3AF0E0E830D0915078
S1130E005040E695001CCAF729D0FE2F27D0660F64
S1130E10771F881FBB1F261737074807AB07B0E8A3
S1130E2009F0BB0B802DBF01FF2793585F4F2AF0B9
S1130E309E3F510568F092C0DCC05F3FECF3983EE2
S1130E40DCF3869577956795B795F7959F5FC9F716
S1130E50880F911D9695879597F90895E1E0660F9F
S1130E60771F881FBB1F621773078407BA0720F018
S1130E70621B730B840BBA0BEE1F88F7E095089581
S1130E8004D06894B111B5C0089598D088F09F57E4
S1130E9090F0B92F9927B751A0F0D1F0660F771FC2
S1130EA0881F991F1AF0BA95C9F712C0B13081F0A2
S1130EB09FD0B1E008959CC0672F782F8827B85F32
S1130EC039F0B93FCCF3869577956795B395D9F703
S1130ED03EF490958095709561957F4F8F4F9F4F0D
S1130EE00895E89409C097FB3EF490958095709519
S1130EF061957F4F8F4F9F4F9923A9F0F92F96E962
S1130F00BB279395F695879577956795B795F111D6
S1130F10F8CFFAF4BB0F11F460FF1BC06F5F7F4F73
S1130F208F4F9F4F16C0882311F096E911C0772385
S1130F3021F09EE8872F762F05C0662371F096E88E
S1130F40862F70E060E02AF09A95660F771F881F5D
S1130F50DAF7880F9695879597F9089597F99F671B
S1130F6080E870E060E008959FEF80EC089500242D
S1130F700A941616170618060906089500240A94FA
S1130F8012161306140605060895092E0394000C80
S1130F9011F4882352F0BB0F40F4BF2B11F460FF0F
S1130FA004C06F5F7F4F8F4F9F4F089557FD905838
S1130FB0440F551F59F05F3F71F04795880F97FB19
S1130FC0991F61F09F3F79F08795089512161306D3
S1130FD01406551FF2CF4695F1DF08C01616170602
S1130FE01806991FF1CF8695710561050894089537
S1130FF0E894BB2766277727CB0197F908950BD090
S1131000C4CFB5DF28F0BADF18F0952309F0A6CFD6
S1131010ABCF1124EECFCADFA0F3959FD1F3950F88
S113102050E0551F629FF001729FBB27F00DB11D68
S1131030639FAA27F00DB11DAA1F649F6627B00DF8
S1131040A11D661F829F2227B00DA11D621F739FE1
S1131050B00DA11D621F839FA00D611D221F749FEF
S11310603327A00D611D231F849F600D211D822F36
S1131070762F6A2F11249F5750408AF0E1F088237D
S11310804AF0EE0FFF1FBB1F661F771F881F91508A
S11310905040A9F79E3F510570F060CFAACF5F3F43
S11310A0ECF3983EDCF3869577956795B795F795BD
S11310B0E7959F5FC1F7FE2B880F911D9695879545
S11310C097F90895A29FB001B39FC001A39F700D2B
S11310D0811D1124911DB29F700D811D1124911D3C
S10910E00895F894FFCF0F
S11310E6CDCCCC3E010001430001000144000103C4
S11310F600000000014300005A5A5A5A5A2D002B88
S1131106006A756E63002020202000656E636F0000
S9030000FC
