S018000070726F746F747970655F626173655F312E737265638C
S113000071C000008EC000008CC000008AC00000D7
S113001088C0000086C0000003C4000082C0000045
S113002080C000007EC000007CC000007AC00000D8
S113003078C0000076C0000074C0000072C00000E8
S113004070C000006EC000006CC000006AC00000F8
S113005068C0000066C0000064C0000062C0000008
S113006060C000005EC000005CC000005AC0000018
S113007058C0000056C0000054C0000052C0000028
S113008050C000004EC000004CC000004AC0000038
S113009048C0000046C0000044C0000042C0000048
S11300A040C000003EC000003CC000003AC0000058
S11300B038C0000036C0000034C0000032C0000068
S11300C030C000002EC000002CC000002AC0000078
S11300D028C0000026C0000024C0000022C0000088
S11300E020C0000011241FBECFEFD1E2DEBFCDBF80
S11300F000E00CBF12E0A0E0B2E0E4E6FFE000E0C4
S11301000BBF02C007900D92A032B107D9F722E0CD
S1130110A0E2B2E001C01D92A737B207E1F77CD29A
S11301201FC76ECF86E69EE00197F1F70000409866
S1130130419880E388B9429AEFEFF7E43197F1F7F9
S113014000C000004298E6E6FEE03197F1F70000B7
S11301504098419888B9429AEFEFF7E43197F1F764
S113016000C000004298E6E6FEE03197F1F7000097
S11301704098419888B9429A8FEF97E40197F1F734
S113018000C000004298E6E6FEE03197F1F7000077
S11301904098419880E288B9429A8FEF97E401979A
S11301A0F1F700C000004298089598B19F7098B983
S11301B098B1282F207F922B98B940984198429A61
S11301C0EFEFF7E43197F1F700C00000429898B1DF
S11301D09F7098B998B18295807F892B88B940988F
S11301E04198429A8FEF97E40197F1F700C000001D
S11301F04298089586E69EE00197F1F7000088E2B0
S1130200D4DF81E0D2DF86E0D0DF8EE0CEDF80E88D
S1130210CCCF089598B19F7098B998B1282F207FBA
S1130220922B98B9409A4198429AEFEFF7E43197AC
S1130230F1F700C00000429898B19F7098B998B146
S11302408295807F892B88B9409A4198429A8FEF92
S113025097E40197F1F700C000004298089580E800
S1130260A4CF0895CF93DF93EC018881882329F0EC
S11302702196D0DF89918111FCCFDF91CF91089530
S1130280823069F018F4813031F00895833059F0E8
S1130290843069F008958FE7860F87CF08958FEB38
S11302A0860F83CF089583E9860F7FCF089583ED6A
S11302B0860F7BCF08950F931F93CF93DF938A010B
S11302C0E901882311F0611102C0C9DF01C0D8DF40
S11302D0C530D105B9F49801329522952F702327A2
S11302E03F702327A7E4B3E02CD69695879596957F
S11302F0879596958795C096909341028093400286
S113030089DF04C0C430D10509F0B7C0980136951F
S113031027953695279536952795A5ECB0E211D605
S1130320AC01529542954F7045275F704527509315
S11303304B0240934A029A01ADECBCEC02D696956E
S1130340879596958795969587959C01220F331FDF
S1130350880F991F880F991F880F991F820F931F69
S11303609A01281B390BC901C096909343028093CC
S1130370420250DF98013695279536952795ABE7CD
S1130380B4E1DFD5AC015695479550934B024093A9
S11303904A029A01ADECBCECD4D596958795969516
S11303A08795969587959C01220F331F880F991F77
S11303B0880F991F880F991F820F931F9A01281B7A
S11303C0390BC901C096909345028093440222DF01
S11303D004C0C230D10509F055C09801ADECBCECA5
S11303E0B0D5AC0156954795569547955695479582
S11303F050934B0240934A029A01A3D59695879550
S113040096958795969587959C01220F331F880FA3
S1130410991F880F991F880F991F820F931F9A01A4
S1130420281B390BC901C09690934702809346025A
S1130430F1DE9801ADECBCEC84D596958795969544
S11304408795969587959C01220F331F880F991FD6
S1130450880F991F880F991F820F931F9801281BDB
S1130460390BC901C0969093490280934802D2DEA9
S1130470269764F085E4CEDE09C0C330D10509F0C7
S1130480A8CF78CFC130D10599F7D3CFDF91CF91E1
S11304901F910F910895D8D287E090E0C3D3809341
S11304A03D0288E090E0BED380933C0286E090E079
S11304B0B9D380933A0285E090E0B4D380933B02B1
S11304C080E090E4A2D390E09093390280933802C4
S11304D080E090E89AD390E09093370280933602BC
S11304E080E090E292D390E09093350280933402BE
S11304F080E090E18AD390E09093330280933202BB
S113050080E190E082D390E090932B0280932A02C2
S113051080E490E07AD390E09093290280932802BB
S113052080E890E072D390E09093270280932602B3
S113053080E290E06AD390E09093250280932402B5
S113054080E098E062D390E090933102809330028F
S113055080E094E05AD390E090932F0280932E028F
S113056080E091E052D390E090932D0280932C028E
S1130570089591DF80912E0290912F02892B41F0F2
S113058081E090E0909323028093220286E982B96D
S113059080912C0290912D02892B41F081E090E012
S11305A0909323028093220289E682B980913802D3
S11305B090913902892B31F08FEF82B91092230286
S11305C010922202089580912002909121028D338D
S11305D091055CF08EE180938C0094E19093880007
S11305E090938A008093B300089588975CF484E123
S11305F080938C009EE19093880090938A0080936E
S1130600B30008958EE180938C00809388008093DA
S11306108A008093B30008956894AA24A1F868948A
S1130620CC24C3F8DD24D394E12C08E011E024E0C9
S113063048E051E061E088E091E019D280E28DBBAE
S113064088E080936A00789410BA83E680937C00F3
S113065087EE80937A00E0E8F0E08081896A808305
S1130660E0EBF0E0808183688083E1E8F0E0808162
S11306708B608083E1EBF0E08081846080831FEFF6
S113068011B914B917B988B1807888B94BDDB2DDD6
S113069012B908E710E0C9E7D0E0DD24DA9469DF95
S11306A0F801808190E09093210280932002688178
S11306B070E0660F771F660F771F682B792B072E64
S11306C0000C880B990B4ED320E030E446E654E44A
S11306D0AED220E030E04CE852E4D0D310D3709393
S11306E021026093200223E030E0AB0161E082E06C
S11306F0E2DD8091220290912302019781F639DF95
S113070080913E0290913F028D369E4E0CF475C04E
S113071080913E0290913F02843991410CF46BC068
S11307206CC027DF8091220290912302892BC9F3A8
S11307308FEF9FEFE8E081509040E040E1F700C088
S113074000006EE081E09CDD89E192E08BDD109297
S11307503F0210923E027C9B21C06DE082E090DD5E
S11307608BE192E07FDDD2B8109223021092220234
S113077000DF8091220290912302892BC9F3FFEFBD
S11307802FEF88E0F15020408040E1F700C00000E6
S11307906DE082E075DD89E192E064DD80913E02E6
S11307A090913F02992354F040913E0250913F02B0
S11307B025E030E061E081E07EDD0CC040913E0246
S11307C050913F0251954195510925E030E061E097
S11307D081E071DD809100029091010288169906F2
S11307E009F45DCF10923F0210923E028090000205
S11307F09090010254CFE7DEAECFD2B8109223021C
S1130800109222026EE081E03BDD8DE192E02ADD70
S11308108091220290912302892B09F482CF88CF00
S11308201F920F920FB60F9211248F939F93649B84
S113083010C080913E0290913F02019690933F0236
S113084080933E0281E090E0909301028093000245
S11308500DC080913E0290913F02019790933F0218
S113086080933E0210920102109200029F918F9198
S11308700F900FBE0F901F9018951F93CF93DF9387
S113088040E050E010E0E1E0F0E0A82FB0E0C091DB
S11308907302D09174022881BF010090640202C0E7
S11308A0660F771F0A94E2F7962F90959223988308
S11308B0642FCD01042E02C0959587950A94E2F722
S11308C080FF10C0C0917102D09172022881CF01C3
S11308D00090630202C0880F991F0A94E2F7822BEA
S11308E0888311C0C0917102D09172022881CF0116
S11308F00090630202C0880F991F0A94E2F7982FB0
S113090090959223988383E08A95F1F70000C09133
S11309107302D091740298819F010090640202C016
S1130920220F331F0A94E2F7292B2883C0916D020A
S1130930D0916E02288130E00090610202C03595AA
S113094027950A94E2F720FF07C0CF0102C0880F61
S1130950991F6A95E2F7182B83E08A95F1F7000056
S11309604F5F5F4F4830510509F091CFE09173021A
S1130970F0917402208181E090E00090640202C052
S1130980880F991F0A94E2F7822B8083812FDF91CD
S1130990CF911F9108950F931F93CF93DF93A0914D
S11309A06F02B09170025C9121E030E0F901009097
S11309B0620202C0EE0FFF1F0A94E2F74E2F409529
S11309C045234C93E0917102F09172027081A90168
S11309D00090630202C0440F551F0A94E2F7472BAC
S11309E04083E0917302F0917402408100906402AC
S11309F002C0220F331F0A94E2F7242B20836623BC
S1130A0071F0EC016150062F10E00F5F1F4F080FCB
S1130A10191F888132DF8993C017D107D1F7E0917C
S1130A206F02F0917002208181E090E000906202F8
S1130A3002C0880F991F0A94E2F7822B8083DF910A
S1130A40CF911F910F910895ECE4F2E081E080834F
S1130A5082E48183EEE4F2E081E692E01192E81709
S1130A60F907E1F765E18CE492E095CF08952F92C0
S1130A703F924F925F926F927F928F929F92AF922A
S1130A80CF92DF92EF920F931F93CF93DF93CDB763
S1130A90DEB767970FB6F894DEBF0FBECDBF909355
S1130AA076028093750250937402409373021093FC
S1130AB0720200937102D0927002C0926F024C01D4
S1130AC031E0831A910890926C0280926B022A01A1
S1130AD0A1E04A1A510850926A0240926902380110
S1130AE0B1E06B1A71087092680260926702160195
S1130AF0E1E02E1A31083092660220926502FC0170
S1130B003297F0936E02E0936D0220936402E092B8
S1130B106302A092620260936102D2013C91E1E01F
S1130B20F0E06F0102C0CC0CDD1C2A95E2F7232F04
S1130B302C292C93D1017C919F0102C0220F331FD9
S1130B40AA94E2F7272B2C93D3017C919F0102C036
S1130B50220F331FEA94E2F7372F322B3C93D40150
S1130B607C9102C0EE0FFF1F6A95E2F73E2F30958D
S1130B7037233C93DC013C91E32BEC93FA01808115
S1130B80C82AC082D8018C91282B2C935DDF85E084
S1130B90E2E0F2E0DE01539601900D928A95E1F7CE
S1130BA065E0CE014396F7DE89E0E7E0F2E0DE019E
S1130BB01A9601900D928A95E1F769E0CE010A96A2
S1130BC0EADE89E0E0E1F2E0DE01119601900D92A7
S1130BD08A95E1F769E0CE010196DDDE67960FB6EE
S1130BE0F894DEBF0FBECDBFDF91CF911F910F915F
S1130BF0EF90DF90CF90AF909F908F907F906F9009
S1130C005F904F903F902F90089520914F02309124
S1130C105002209530952823392381E0232B09F4B1
S1130C2080E00895845B9D4FFC01808108950CD081
S1130C30EBC0E3D040F0DAD030F021F45F3F19F09C
S1130C40CCC0511115C1CFC0F0D098F39923C9F38A
S1130C505523B1F3951B550BBB27AA2762177307BE
S1130C60840738F09F5F5F4F220F331F441FAA1F72
S1130C70A9F333D00E2E3AF0E0E830D09150504032
S1130C80E695001CCAF729D0FE2F27D0660F771FE0
S1130C90881FBB1F261737074807AB07B0E809F0C2
S1130CA0BB0B802DBF01FF2793585F4F2AF09E3F57
S1130CB0510568F092C0DCC05F3FECF3983EDCF372
S1130CC0869577956795B795F7959F5FC9F7880FD0
S1130CD0911D9695879597F90895E1E0660F771F22
S1130CE0881FBB1F621773078407BA0720F0621BB3
S1130CF0730B840BBA0BEE1F88F7E095089504D0AC
S1130D006894B111B5C0089598D088F09F5790F0B9
S1130D10B92F9927B751A0F0D1F0660F771F881F1C
S1130D20991F1AF0BA95C9F712C0B13081F09FD05B
S1130D30B1E008959CC0672F782F8827B85F39F0F9
S1130D40B93FCCF3869577956795B395D9F73EF47B
S1130D5090958095709561957F4F8F4F9F4F089523
S1130D60E89409C097FB3EF4909580957095619541
S1130D707F4F8F4F9F4F9923A9F0F92F96E9BB27F7
S1130D809395F695879577956795B795F111F8CF73
S1130D90FAF4BB0F11F460FF1BC06F5F7F4F8F4FDE
S1130DA09F4F16C0882311F096E911C0772321F0D4
S1130DB09EE8872F762F05C0662371F096E8862F6C
S1130DC070E060E02AF09A95660F771F881FDAF7C3
S1130DD0880F9695879597F9089597F99F6780E806
S1130DE070E060E008959FEF80EC089500240A9479
S1130DF01616170618060906089500240A941216F2
S1130E001306140605060895092E0394000C11F424
S1130E10882352F0BB0F40F4BF2B11F460FF04C0D1
S1130E206F5F7F4F8F4F9F4F089557FD9058440F2A
S1130E30551F59F05F3F71F04795880F97FB991F35
S1130E4061F09F3F79F087950895121613061406F2
S1130E50551FF2CF4695F1DF08C01616170618067F
S1130E60991FF1CF86957105610508940895E8945A
S1130E70BB2766277727CB0197F908950BD0C4CFFA
S1130E80B5DF28F0BADF18F0952309F0A6CFABCF71
S1130E901124EECFCADFA0F3959FD1F3950F50E054
S1130EA0551F629FF001729FBB27F00DB11D639F18
S1130EB0AA27F00DB11DAA1F649F6627B00DA11DBE
S1130EC0661F829F2227B00DA11D621F739FB00D64
S1130ED0A11D621F839FA00D611D221F749F3327D4
S1130EE0A00D611D231F849F600D211D822F762F6D
S1130EF06A2F11249F5750408AF0E1F088234AF06A
S1130F00EE0FFF1FBB1F661F771F881F91505040B5
S1130F10A9F79E3F510570F060CFAACF5F3FECF375
S1130F20983EDCF3869577956795B795F795E795A1
S1130F309F5FC1F7FE2B880F911D9695879597F9B2
S1130F400895A29FB001B39FC001A39F700D811D9E
S1130F501124911DB29F700D811D1124911D0895BE
S1070F60F894FFCF2F
S1130F6401000143000100014400010300000000EA
S1130F74014300005A5A5A5A5A20006A0065000074
S9030000FC
