S018000070726F746F747970655F626173655F312E737265638C
S113000071C000008FC000008DC000008BC00000D4
S113001089C0000087C00000BAC5000083C000008A
S113002081C000007FC000007DC000007BC00000D4
S113003079C0000077C0000075C0000073C00000E4
S113004071C000006FC000006DC000006BC00000F4
S113005069C0000067C0000065C0000063C0000004
S113006061C000005FC000005DC000005BC0000014
S113007059C0000057C0000055C0000053C0000024
S113008051C000004FC000004DC000004BC0000034
S113009049C0000047C0000045C0000043C0000044
S11300A041C000003FC000003DC000003BC0000054
S11300B039C0000037C0000035C0000033C0000064
S11300C031C000002FC000002DC000002BC0000074
S11300D029C0000027C0000025C0000023C0000084
S11300E021C0000011241FBECFEFD1E2DEBFCDBF7F
S11300F000E00CBF12E0A0E0B2E0E4EFF3E100E0C6
S11301000BBF02C007900D92A833B107D9F722E0C4
S1130110A8E3B2E001C01D92A939B207E1F743D4C4
S11301200C94F8096DCF86E69EE00197F1F7000084
S11301304098419880E388B9429AEFEFF7E4319709
S1130140F1F700C000004298E6E6FEE03197F1F7CF
S113015000004098419888B9429AEFEFF7E431974C
S1130160F1F700C000004298E6E6FEE03197F1F7AF
S113017000004098419888B9429A8FEF97E401971C
S1130180F1F700C000004298E6E6FEE03197F1F78F
S113019000004098419880E288B9429A8FEF97E432
S11301A00197F1F700C000004298089598B19F703C
S11301B098B998B1282F207F922B98B940984198EC
S11301C0429AEFEFF7E43197F1F700C0000042984C
S11301D098B19F7098B998B18295807F892B88B91E
S11301E040984198429A8FEF97E40197F1F700C045
S11301F000004298089586E69EE00197F1F700001A
S113020088E2D4DF81E0D2DF86E0D0DF8EE0CEDF8B
S113021080E8CCCF089598B19F7098B998B1282FF1
S1130220207F922B98B9409A4198429AEFEFF7E4D5
S11302303197F1F700C00000429898B19F7098B9C7
S113024098B18295807F892B88B9409A4198429AC7
S11302508FEF97E40197F1F700C0000042980895EA
S113026080E8A4CF0895CF93DF93EC01888188239D
S113027029F02196D0DF89918111FCCFDF91CF91B4
S11302800895823069F018F4813031F00895833094
S113029059F0843069F008958FE7860F87CF089569
S11302A08FEB860F83CF089583E9860F7FCF089560
S11302B083ED860F7BCF08950F931F93CF93DF9326
S11302C08A01E901882311F0611102C0C9DF01C06C
S11302D0D8DFC530D105C1F49801329522952F702D
S11302E023273F702327A7E4B3E00E94E9099695EA
S11302F087959695879596958795C0969093630272
S11303008093620288DF04C0C430D10509F0BBC009
S11303109801369527953695279536952795A5EC1A
S1130320B0E20E94E909AC01529542954F7045270D
S11303305F70452750936D0240936C029A01ADECB7
S1130340BCEC0E94E90996958795969587959695B4
S113035087959C01220F331F880F991F880F991FBF
S1130360880F991F820F931F9A01281B390BC9010B
S1130370C09690936502809364024DDF9801369590
S1130380279536952795ABE7B4E10E94E909AC01BE
S11303905695479550936D0240936C029A01ADECCB
S11303A0BCEC0E94E9099695879596958795969554
S11303B087959C01220F331F880F991F880F991F5F
S11303C0880F991F820F931F9A01281B390BC901AB
S11303D0C09690936702809366021DDF04C0C2300A
S11303E0D10509F055C09801ADECBCECF2D7AC01D5
S11303F056954795569547955695479550936D0252
S113040040936C029A01E5D79695879596958795C2
S1130410969587959C01220F331F880F991F880F8B
S1130420991F880F991F820F931F9A01281B390B5C
S1130430C901C0969093690280936802ECDE98012A
S1130440ADECBCECC6D79695879596958795969511
S113045087959C01220F331F880F991F880F991FBE
S1130460880F991F820F931F9801281B390BC9010C
S1130470C09690936B0280936A02CDDE269764F057
S113048085E4C9DE09C0C330D10509F0A8CF76CF11
S1130490C130D10599F7D3CFDF91CF911F910F913F
S11304A0089583E382B989E180938C008093880066
S11304B080938A008093B30008958CEC82B989E11B
S11304C080938C008093880080938A008093B3008B
S11304D0089571D487E090E05CD580935F0288E052
S11304E090E057D580935E0286E090E052D58093E9
S11304F05C0285E090E04DD580935D0280E090E45D
S11305003BD590E090935B0280935A0280E090E8A0
S113051033D590E0909359028093580280E090E2A2
S11305202BD590E0909357028093560280E090E19F
S113053023D590E0909355028093540280E190E09B
S11305401BD590E090934D0280934C0280E490E0A0
S113055013D590E090934B0280934A0280E890E098
S11305600BD590E0909349028093480280E290E09A
S113057003D590E0909347028093460280E098E090
S1130580FBD490E0909353028093520280E094E075
S1130590F3D490E0909351028093500280E091E074
S11305A0EBD490E090934F0280934E02089591DF34
S11305B08091500290915102892B41F081E090E0AA
S11305C0909345028093440286E982B980914E0259
S11305D090914F02892B41F081E090E09093450285
S11305E08093440289E682B980915A0290915B0219
S11305F0892B31F08FEF82B9109245021092440298
S113060008954F925F926F927F928F929F92AF92D2
S1130610BF92CF92DF92EF92FF926091780070E0E8
S1130620709339026093380280917900782B072EF9
S1130630000C880B990BB6D520E030E04FE754E46A
S113064016D520E030E04CE852E460D678D56B0152
S11306507C01709339026093380284E4C816D10493
S11306602CF580903A0290903B02A0903C02B0900E
S11306703D02A501940160913E0270913F02809178
S11306804002909141028AD42B013C0120E030E0E9
S113069040E251E437D618164CF020E030E040E256
S11306A051ECC301B201DFD48823BCF480913A0237
S11306B090913B02A0913C02B0913D0280933E0296
S11306C090933F02A0934002B09341026DE081E019
S11306D0D8DD81E292E0C7DD3EC0B6016352710904
S11306E0072E000C880B990B5DD56B017C012091C2
S11306F0040230910502409106025091070206D689
S11307002B013C01A5019401C701B60147D42091F6
S11307100002309101024091020250910302F6D589
S11307209B01AC01C301B2013AD460933E027093C1
S11307303F02809340029093410260933A02709387
S11307403B0280933C0290933D026DE081E099DD91
S113075086E392E088DD20E030E0A90160913E026A
S113076070913F0280914002909141027CD4882391
S1130770CCF461E082E085DD83E292E074DD809177
S11307803E0290913F02A0914002B0914102BC010F
S1130790CD019058D9D423E030E0AB0162E082E08F
S11307A08BDD15C061E082E06CDD85E292E05BDD0B
S11307B060913E0270913F0280914002909141020B
S11307C0C3D423E030E0AB0162E082E075DD409108
S11307D038025091390224E030E069E082E06CDDB7
S11307E0FF90EF90DF90CF90BF90AF909F908F904D
S11307F07F906F905F904F90089503DF809138024F
S1130800909139028932910514F057DE03C04E9756
S11308100CF447DE86E982B90895CF92DF92EF9215
S1130820FF92C0903E02D0903F02E0904002F090D0
S1130830410220E030E040E252E4C701B60162D553
S113084088234CF420E030E040E252ECC701B601CA
S11308500AD418164CF06DE081E013DD87E292E0D3
S113086002DD8FEF82B99AC0CCDEC0903E02D090F8
S11308703F02E0904002F090410220E030E0A90104
S1130880C701B6013FD518160CF03BC0A70196016D
S113089060E070E080E292E481D356D460938A00F1
S11308A020E030E040E252E460913E0270913F0269
S11308B0809140029091410272D346D46093B30078
S11308C020E030E040E252E460913E0270913F0249
S11308D0809140029091410262D336D460938C009F
S11308E020913E0230913F024091400250914102DA
S11308F060E070E080E292E451D326D460938800F3
S11309004DC020E030E0A901C701B601ACD3882373
S11309100CF03BC0A701960160E070E080E292E435
S11309203DD312D460938A0020E030E040E252E4E8
S113093060913E0270913F02809140029091410289
S11309402ED302D46093B30020E030E040E252E4BE
S113095060913E0270913F02809140029091410269
S11309601ED3F2D360938C0020913E0230913F025B
S1130970409140025091410260E070E080E292E4D4
S11309800DD3E2D36093880009C088E280938C0081
S11309908093880080938A008093B300FF90EF9047
S11309A0DF90CF9008956894AA24A1F86894CC2489
S11309B0C3F8DD24D394E12C08E011E024E048E0FE
S11309C051E061E088E091E009D280E28DBB88E0EB
S11309D080936A00789410BA83E480937C0087EE55
S11309E080937A00E0E8F0E08081896A8083E0EB1C
S11309F0F0E0808183688083E1E8F0E080818B60AF
S1130A008083E1EBF0E08081846080831FEF11B983
S1130A1014B917B988B1807888B985DBECDB12B9D1
S1130A20FF24FA9401E010E0C2DDEBDD86C0BFDDF7
S1130A308091420290914302009719F580916002DF
S1130A4090916102893C974E0CF481C080916002C0
S1130A5090916102883398410CF477C078C0A7DD87
S1130A608091440290914502892BC9F36DE081E0A5
S1130A7008DC89E292E0F7DB1092610210926002D6
S1130A8003C0019709F4B9DE7C9B2CC0C6DEF2B822
S1130A90109261021092600210924302109242027C
S1130AA0439A8FEF9FEF29E5815090402040E1F772
S1130AB000C0000043986DE081E0E3DB8EE292E049
S1130AC0D2DB109245021092440271DD80914402FF
S1130AD090914502892BC9F36DE081E0D2DB89E274
S1130AE092E0C1DB8091600290916102992354F0FD
S1130AF0409160025091610225E030E061E081E0C4
S1130B00DBDB0CC04091600250916102519541952C
S1130B10510925E030E061E081E0CEDB80910802FC
S1130B2090910902C817D90741F0109261021092FE
S1130B306002C0910802D091090280914402909110
S1130B404502019709F473CF6FCF67DE9DCFF2B8EA
S1130B508FEF9FEF20EE815090402040E1F700C0DE
S1130B600000109343020093420210924502109237
S1130B7044026DE081E085DB83E392E074DB8091E5
S1130B80440290914502892B09F469CF6FCF1F92DB
S1130B900F920FB60F9211248F939F93649B10C0F2
S1130BA0809160029091610201969093610280931A
S1130BB0600281E090E090930902809308020DC0E6
S1130BC080916002909161020197909361028093F9
S1130BD0600210920902109208029F918F910F9067
S1130BE00FBE0F901F9018951F93CF93DF9340E093
S1130BF050E010E0E1E0F0E0A82FB0E0C0919502F1
S1130C00D09196022881BF010090860202C0660F2F
S1130C10771F0A94E2F7962F909592239883642F76
S1130C20CD01042E02C0959587950A94E2F780FFC2
S1130C3010C0C0919302D09194022881CF010090FA
S1130C40850202C0880F991F0A94E2F7822B8883D9
S1130C5011C0C0919302D09194022881CF010090D9
S1130C60850202C0880F991F0A94E2F7982F909585
S1130C709223988383E08A95F1F70000C09195024E
S1130C80D091960298819F010090860202C0220FA3
S1130C90331F0A94E2F7292B2883C0918F02D09145
S1130CA09002288130E00090830202C03595279598
S1130CB00A94E2F720FF07C0CF0102C0880F991FF2
S1130CC06A95E2F7182B83E08A95F1F700004F5FED
S1130CD05F4F4830510509F091CFE0919502F091B2
S1130CE09602208181E090E00090860202C0880F85
S1130CF0991F0A94E2F7822B8083812FDF91CF9191
S1130D001F9108950F931F93CF93DF93A0919102A6
S1130D10B09192025C9121E030E0F90100908402EC
S1130D2002C0EE0FFF1F0A94E2F74E2F40954523B1
S1130D304C93E0919302F09194027081A901009088
S1130D40850202C0440F551F0A94E2F7472B4083E3
S1130D50E0919502F091960240810090860202C0D3
S1130D60220F331F0A94E2F7242B2083662371F0A9
S1130D70EC016150062F10E00F5F1F4F080F191F81
S1130D80888132DF8993C017D107D1F7E0919102AE
S1130D90F0919202208181E090E00090840202C0F0
S1130DA0880F991F0A94E2F7822B8083DF91CF91F9
S1130DB01F910F910895EEE6F2E081E0808382E4D2
S1130DC08183E0E7F2E083E892E01192E817F90703
S1130DD0E1F765E18EE692E095CF08952F923F9278
S1130DE04F925F926F927F928F929F92AF92CF9227
S1130DF0DF92EF920F931F93CF93DF93CDB7DEB7BC
S1130E0067970FB6F894DEBF0FBECDBF90939802DC
S1130E108093970250939602409395021093940204
S1130E2000939302D0929202C09291024C0131E05D
S1130E30831A910890928E0280928D022A01A1E079
S1130E404A1A510850928C0240928B023801B1E048
S1130E506B1A710870928A02609289021601E1E0AD
S1130E602E1A31083092880220928702FC013297B0
S1130E70F0939002E0938F0220938602E092850221
S1130E80A092840260938302D2013C91E1E0F0E0FD
S1130E906F0102C0CC0CDD1C2A95E2F7232F2C290C
S1130EA02C93D1017C919F0102C0220F331FAA947D
S1130EB0E2F7272B2C93D3017C919F0102C0220FD0
S1130EC0331FEA94E2F7372F322B3C93D4017C9101
S1130ED002C0EE0FFF1F6A95E2F73E2F30953723CD
S1130EE03C93DC013C91E32BEC93FA018081C82A0A
S1130EF0C082D8018C91282B2C935DDF85E0EAE039
S1130F00F2E0DE01539601900D928A95E1F765E0D7
S1130F10CE014396F7DE89E0EFE0F2E0DE011A96B7
S1130F2001900D928A95E1F769E0CE010A96EADE16
S1130F3089E0E8E1F2E0DE01119601900D928A95D4
S1130F40E1F769E0CE010196DDDE67960FB6F8940D
S1130F50DEBF0FBECDBFDF91CF911F910F91EF90F8
S1130F60DF90CF90AF909F908F907F906F905F9025
S1130F704F903F902F90089520917102309172020A
S1130F80209530952823392381E0232B09F480E030
S1130F90089582599D4FFC01808108955058BB27C4
S1130FA0AA270ED075C166D130F06BD120F031F490
S1130FB09F3F11F41EF45BC10EF4E095E7FB51C1B1
S1130FC0E92F77D180F3BA1762077307840795076F
S1130FD018F071F49EF58FC10EF4E0950B2EBA2F24
S1130FE0A02D0B01B90190010C01CA01A00111242B
S1130FF0FF27591B99F0593F50F4503E68F11A16D7
S1131000F040A22F232F342F4427585FF3CF469567
S113101037952795A795F0405395C9F77EF41F1689
S1131020BA0B620B730B840BBAF09150A1F0FF0F53
S1131030BB1F661F771F881FC2F70EC0BA0F621F3F
S1131040731F841F48F4879577956795B795F7952F
S11310509E3F08F0B3CF9395880F08F09927EE0FC1
S1131060979587950895D9D008F481E008950CD018
S11310700FC107D140F0FED030F021F45F3F19F0EA
S1131080F0C0511139C1F3C014D198F39923C9F3B5
S11310905523B1F3951B550BBB27AA27621773077A
S11310A0840738F09F5F5F4F220F331F441FAA1F2E
S11310B0A9F333D00E2E3AF0E0E830D091505040EE
S11310C0E695001CCAF729D0FE2F27D0660F771F9C
S11310D0881FBB1F261737074807AB07B0E809F07E
S11310E0BB0B802DBF01FF2793585F4F2AF09E3F13
S11310F0510568F0B6C000C15F3FECF3983EDCF3E5
S1131100869577956795B795F7959F5FC9F7880F8B
S1131110911D9695879597F90895E1E0660F771FDD
S1131120881FBB1F621773078407BA0720F0621B6E
S1131130730B840BBA0BEE1F88F7E095089504D067
S11311406894B111D9C00895BCD088F09F5790F02D
S1131150B92F9927B751A0F0D1F0660F771F881FD8
S1131160991F1AF0BA95C9F712C0B13081F0C3D0F3
S1131170B1E00895C0C0672F782F8827B85F39F091
S1131180B93FCCF3869577956795B395D9F73EF437
S113119090958095709561957F4F8F4F9F4F0895DF
S11311A0E89409C097FB3EF49095809570956195FD
S11311B07F4F8F4F9F4F9923A9F0F92F96E9BB27B3
S11311C09395F695879577956795B795F111F8CF2F
S11311D0FAF4BB0F11F460FF1BC06F5F7F4F8F4F9A
S11311E09F4F16C0882311F096E911C0772321F090
S11311F09EE8872F762F05C0662371F096E8862F28
S113120070E060E02AF09A95660F771F881FDAF77E
S1131210880F9695879597F90895990F0008550FAB
S1131220AA0BE0E8FEEF16161706E807F907C0F068
S113123012161306E407F50798F0621B730B840B70
S1131240950B39F40A2661F0232B242B252B21F44A
S113125008950A2609F4A140A6958FEF811D811DEA
S1131260089597F99F6780E870E060E008959FEF24
S113127080EC089500240A94161617061806090629
S1131280089500240A9412161306140605060895F8
S1131290092E0394000C11F4882352F0BB0F40F480
S11312A0BF2B11F460FF04C06F5F7F4F8F4F9F4FC0
S11312B0089557FD9058440F551F59F05F3F71F042
S11312C04795880F97FB991F61F09F3F79F08795A9
S11312D00895121613061406551FF2CF4695F1DF32
S11312E008C0161617061806991FF1CF86957105C2
S11312F0610508940895E894BB2766277727CB01F6
S113130097F908958ADF08F48FEF08950BD0C0CFC2
S1131310B1DF28F0B6DF18F0952309F0A2CFA7CFEC
S11313201124EACFC6DFA0F3959FD1F3950F50E0C7
S1131330551F629FF001729FBB27F00DB11D639F83
S1131340AA27F00DB11DAA1F649F6627B00DA11D29
S1131350661F829F2227B00DA11D621F739FB00DCF
S1131360A11D621F839FA00D611D221F749F33273F
S1131370A00D611D231F849F600D211D822F762FD8
S11313806A2F11249F5750408AF0E1F088234AF0D5
S1131390EE0FFF1FBB1F661F771F881F9150504021
S11313A0A9F79E3F510570F05CCFA6CF5F3FECF3E9
S11313B0983EDCF3869577956795B795F795E7950D
S11313C09F5FC1F7FE2B880F911D9695879597F91E
S11313D00895A29FB001B39FC001A39F700D811D0A
S11313E01124911DB29F700D811D1124911D08952A
S10713F0F894FFCF9B
S11313F48FC2F53C3D0AD73E0100014300010001C0
S11314044400010300000000014300005A5A5A5AE0
S11314145A69002D002B00680020202020006A75E2
S10B14246E6300656E636F0046
S9030000FC
